:020000040800F2
:10000000D8870020490F0008F1060008F306000811
:10001000F5060008F7060008F906000800000000D1
:100020000000000000000000000000004501000882
:10003000FB0600080000000089010008710E00089E
:10004000630F0008630F0008630F0008630F0008C8
:10005000630F0008630F0008630F0008630F0008B8
:10006000630F0008630F0008630F0008630F0008A8
:10007000630F0008630F0008630F0008630F000898
:10008000630F0008630F0008630F0008630F000888
:10009000630F0008630F0008630F0008630F000878
:1000A000630F0008630F0008630F0008630F000868
:1000B000630F0008630F0008630F0008630F000858
:1000C000630F0008630F0008630F0008630F000848
:1000D000630F0008CD0B0008EF0C0008630F000849
:1000E000630F0008630F0008630F0008630F000828
:1000F000630F0008630F0008630F0008630F000818
:10010000630F0008630F0008630F0008630F000807
:10011000630F0008630F0008630F0008630F0008F7
:10012000630F0008630F0008630F0008630F0008E7
:10013000DFF80CD005F0CCFA004800477F05000836
:10014000D8870020224B19680868B0E8F00F80F3C8
:100150000988BFF36F8F4FF0000080F311884EF0D5
:100160000D0E70470000000006480068006880F32C
:10017000088862B661B6BFF34F8FBFF36F8F00DFA1
:1001800000BF00BF08ED00E0EFF30980BFF36F8F01
:100190000F4B1A6820E9F00F106008B54FF05000BF
:1001A00080F31188BFF34F8FBFF36F8F02F05CFEB7
:1001B0004FF0000080F31188BDE808401968086816
:1001C000B0E8F00F80F30988BFF36F8F704700BF6E
:1001D0007C000020EFF3058070470000DFF8F0831B
:1001E000FC4F0A264FF47A79D8F8000080688047DF
:1001F00004007CD0207904285AD1182005F02CFD69
:1002000005460720287105F027FD2860F24801887F
:10021000A5F809108078E872B4F80900A881E07A9E
:10022000A8731020A074ED4801698847EC48016963
:100230008847ECA1206805F02DF828B1EBA12868CB
:1002400005F04FF8B8781AE0EAA1206805F022F826
:1002500028B1EAA1286805F044F838780FE0E9A150
:10026000206805F017F820B9E8A1206805F012F819
:1002700090B1E8A1286805F034F8E84800882A68B9
:10028000B0FBF6F130315171B0FBF6F106FB110015
:1002900029683030887103E0E1A1286805F021F871
:1002A000E1480068416828468847204604F0D9FBA9
:1002B0002079072821D1E24DDCA1284600F03EFC40
:1002C000322002F005FDE37AA27A617ADDA005F022
:1002D00031FA322002F0FCFC22792846216800F035
:1002E00016FC322002F0F4FCDEA1284600E004E017
:1002F00000F024FC204604F0B4FB484602F0E8FC81
:1003000072E7DFF8D892B44FDFF86083C34E4FF046
:10031000070B4FF0100A0A25D9F81010AF4888478C
:10032000182005F099FC044680F804B0072005F079
:1003300093FC20603988A4F80910B978E172B8F804
:100340000020A28198F80210A17384F812A0C8A11D
:1003500004F0C7FF30882268B0FBF5F130315171ED
:10036000B0FBF5F105FB1100216830308871AE4813
:10037000006841682046884742F2107002F0A8FCED
:10038000CAE7DFF85C92944FDFF8E082914E4FF0BD
:10039000070B4FF0100A0A25D9F81010904888472B
:1003A000182005F059FC044680F804B0072005F039
:1003B00053FC20603988A4F80910B978E172B8F8C4
:1003C0000020A28198F80210A17384F812A08BA1DA
:1003D00004F087FF30782268B0FBF5F130315171BD
:1003E000B0FBF5F105FB11002168303088718E48B3
:1003F000006841682046884742F2107002F068FCAD
:10040000CAE7DFF8DC91744FDFF86082714E4FF07D
:10041000070B4FF0100A0A25D9F8101070488847CA
:10042000182005F019FC044680F804B0072005F0F8
:1004300013FC20603988A4F80910B978E172B8F883
:100440000020A28198F80210A17384F812A067A17D
:1004500004F047FFB0782268B0FBF5F130315171FC
:10046000B0FBF5F105FB11002168303088716E4852
:10047000006841682046884742F2107002F028FC6C
:10048000CAE704F015FB0A2002F022FCF9E77A4DD6
:1004900004F035FC286800688169884712E0286804
:1004A00000684169884704680146A08A401E00B27E
:1004B000A082002806DC28680068826C90472046ED
:1004C00000F077FA28680068016988470028E6D1BB
:1004D000142002F0FDFBDBE77CB503F079FE6349F5
:1004E00005200C314FF48065CDE9000100232A4638
:1004F00062A1AFF2650002F029FA5C490A200831D6
:10050000CDE9000100232A465FA1AFF2890002F085
:100510001DFA564800241430CDE9004023468022BD
:100520005CA1AFF2211002F011FA504800231830FC
:10053000CDE9004080225AA1AFF2B91002F006FACC
:100540004A4800231C30CDE90040802257A1AFF279
:100550004D2002F0FBF9454904201031CDE900019E
:1005600000232A4654A1AFF28B3002F0EFF93F4846
:10057000406802F016FABDE87C4003F043BE1CB5AB
:100580004FF4407000F0F2FC00F07CFC00F066FAE2
:100590004FF4E13000F05EFB00F05CF904F05FF92D
:1005A00004F098FB04F072FA04F002FD04F016FE69
:1005B0002E48032101704170817042A005F0BAF805
:1005C0002A490120091D00238022CDE900017FE096
:1005D000F80000201401002036000020AC57002055
:1005E000C057002074656D700000000074656D7068
:1005F0003A00000068756D690000000068756D695B
:100600003A00000065756D690000000045756D6970
:100610000000000045756D693A00000008010020E7
:100620006572726F7221210004010020BDD3CAD50A
:10063000B5BDC0B4D7D4B5D8D6B7CEAAA3BA00003A
:100640000038014025327820253278202532782064
:10065000B5C4C9E8B1B8B7A2CBCDB5C4CAFDBEDD3B
:10066000A1BE0000A1BF0D0A000000000000002094
:1006700065756D693A000000F000002073656E64D6
:100680005F7461736B000000726563765F74617301
:100690006B00000054454D505F7461736B000000A7
:1006A00048554D495F7461736B00000045554D49D5
:1006B0005F7461736B000000617070315F7461730F
:1006C0006B000000CFB5CDB3C6F4B6AF000000009C
:1006D00004A1AFF2FB1002F039F902F0DDFC0020BA
:1006E0001CBD000073746172745F7461736B0000F1
:1006F0007047FEE7FEE7FEE7FEE770470CB5002215
:100700004C4800920192016841F4803101604FF43D
:10071000A063016801F4003101910099491C009126
:10072000019911B900999942F3D10168890333D530
:100730000121019140490A6842F010020A600A68EA
:1007400022F003020A600A6842F002020A6041686D
:10075000416041684160416841F4806141604168A5
:1007600021F47C114160416841F4E8114160016865
:1007700041F08071016001688901FCD5416821F078
:1007800003014160416841F0020141604168C1F3E9
:1007900081010229FAD10CBD01920CBD254810B58A
:1007A000016841F0010101604168244A1140416043
:1007B0000168234A11400160016821F48021016031
:1007C000416821F4FE0141604FF41F018160FFF791
:1007D00095FF1C494FF00060086010BD154A10B528
:1007E0005068194B10F00C01184803D0042901D0AF
:1007F000082901D0036012E05168536801F47011B8
:100800004FF0020413F4803F04EB914102D053688F
:100810009B0301D50E4B00E00B4B5943016051681F
:100820000A4AC1F30311121D515C0268CA400260FA
:1008300010BD000000100240002002400000FFF840
:10084000FFFFF6FE08ED00E000127A002000002015
:1008500000093D0010B57E4C02200022207060701F
:10086000E01CA270032101704170827000F0D4FA84
:100870002078784902280CD0032811D16078032809
:100880000ED18B6840F20220BDE8104002460121E3
:1008900018476078022803D140F203308B68F3E7F1
:1008A00010BD70B50D466C4E0446010A304600F08E
:1008B00023F9E1B2304600F01FF929463046BDE881
:1008C000704000F019B970B50C460546624E11E053
:1008D0002178012903D0042901D01B2903D11B2130
:1008E000304600F009F92178304600F005F96D1E18
:1008F000EDB2641C002DEBD170BD70B5564D0446B1
:10090000012803D0042C01D01B2C03D11B21284625
:1009100000F0F2F821462846BDE8704000F0ECB83F
:1009200070B504000DD004F06CF8494A2072207BA9
:100930001178884207D1617B5278914203D1A27B22
:100940000EE0002070BD617B01EB0020414980B2C8
:10095000096988473E490022891E0880C1B2000A01
:1009600000F064F83C4D0121284600F0C5F8A07C59
:10097000FFF7C3FF607AFFF7C0FFA07AFFF7BDFF64
:10098000E07AFFF7BAFF207BFFF7B7FF607BFFF746
:10099000B4FFA07BFFF7B1FF20792168FFF793FF39
:1009A000207AFFF7AAFF0421284600F0A5F80120CD
:1009B00070BD70B5040037D02068A0B3207990B323
:1009C000204604F01EF82072A27B617B207B00F0A1
:1009D0002DF8214D0121284600F08EF81020FFF758
:1009E0008CFF607AFFF789FFA07AFFF786FFE07A35
:1009F000FFF783FF207BFFF780FF607BFFF77DFF22
:100A0000A07BFFF77AFF20792168FFF75CFF207A4F
:100A1000FFF773FF0421284600F06EF8204604F02B
:100A200020F8012070BDFFE70020FBE770B50D4600
:100A3000094C01461646204600F05EF8294620463D
:100A400000F05AF831462046BDE8704000F054B836
:100A500036000020280300200044004010B586B076
:100A60000121042000F019FD0121880300F015FD8B
:100A70004FF40070ADF8100018208DF8130003201B
:100A8000714C8DF8120004A9204600F01EFB2115C0
:100A9000ADF8101004218DF8131004A9204600F0C1
:100AA00014FB4FF4E13000900020ADF80400ADF8E5
:100AB0000600ADF80800ADF80C000C20634CADF852
:100AC0000A006946204600F067FD25218DF81410C4
:100AD00001218DF815108DF8171005A800F04BFABC
:100AE000012240F22551204600F0D3FD012120468D
:100AF00000F0C5FD06B010BD10B5044600F015FEAF
:100B00008021204600F072FE0028F9D010BD2DE9AA
:100B1000F04115460E460746002405E0315D384693
:100B2000FFF7EAFF641CE4B2AC42F7D34021384639
:100B300000F05CFE0028F9D0BDE8F08170B50D46EC
:100B4000064600243046295DFFF7D6FF641C285D69
:100B50000028F7D14021304600F048FE0028F9D0A7
:100B600070BD70B50446080ACDB20146204600F0BB
:100B7000DCFD8021204600F039FE0028F9D029460E
:100B8000204600F0D2FD8021204600F02FFE0028F4
:100B9000F9D070BD70B52D4D0446C1B2284600F0A5
:100BA000C4FD8021284600F021FE0028F9D020460F
:100BB00070BD10B5254C2021204600F017FE0028FE
:100BC000F9D02046BDE8104000F0B3BD10B51F4C71
:100BD00040F22551204600F013FE00280FD0204699
:100BE00000F0A7FD1A4AC0B20023517841B19478B1
:100BF000214204D0516801F8010B5160537010BDBF
:100C00009178012479B1042806D01B280BD05168B3
:100C100001F8010B516010BD516801F8010B5160E2
:100C20001470937010BD13780BB9012805D00029FA
:100C3000F8D01B28F6D1547010BD516801F8010B93
:100C40005160947010BD0000000801400038014060
:100C50003C00002070B5044686B00121042000F05D
:100C60001CFC0121480400F021FC0425ADF81050C3
:100C700018208DF8130003203C4E8DF8120004A9B3
:100C8000304600F022FA0820ADF810008DF813501D
:100C900004A9304600F019FA00940024ADF8084089
:100CA0000C20334DADF80440ADF80A00ADF8064015
:100CB000ADF80C406946284600F06EFC26208DF801
:100CC000140001218DF817108DF815108DF81640BD
:100CD00005A800F050F9012240F22551284600F005
:100CE000D8FC0121284600F0CAFC06B070BD70B5E2
:100CF0001F4C40F22551204600F082FD002810D004
:100D0000204600F016FD1B4A1B4BC0B25178002450
:100D100041B19578294204D091885854491C91805A
:100D2000547070BD9178012579B1042806D01B2834
:100D30000BD091885854491C918070BD91885854AB
:100D4000491C91801570947070BD14780CB90128FD
:100D500005D00029F8D01B28F6D1557070BD9188B8
:100D60005854491C9180957070BD000000080140E6
:100D700000440040440000202802002037498968D0
:100D80000968896806E00B681988814201D1588892
:100D9000704711468A68002AF5D1304812304088E1
:100DA000704730B42D4B0446986801688968196013
:100DB0000AE0096859600988A14203D1826C196868
:100DC00030BC104711461A608A68002AF1D130BC45
:100DD00070472DE9F04104462048204D0C3016465E
:100DE0000480A8680F460068806804E001680B88EA
:100DF000A34204D010468268002AF7D1002121B90D
:100E0000062004F029FF014604800F714E80A86877
:100E1000C269BDE8F041104710B511A003F08AFC8B
:100E20000E490023886010484278007802EB0020C9
:100E300001F11202108013715080AFF269020B4869
:100E40008260AFF2A102C260AFF2CF020261D1F8BC
:100E500012200260C98A818010BD00004C00002071
:100E6000726F7574696E67003900002028030020D6
:100E700010B502F055FB012803D0BDE8104003F087
:100E8000D2B910BD10B5042000F0B5F82B482C499C
:100E90002C4A0068B0FBF1F3B0FBF1F14FF47A702B
:100EA00041431370012050804FF0E020026942F06E
:100EB000020202614161016941F00101016110BD5D
:100EC00070B54FF0E02500216C691E4AAB691278BD
:100ED0005043AA699A42FCD002D2A3EB020302E07B
:100EE000A4EB02063344194413468142F1D370BD8A
:100EF00070B5044602F014FB01280CD0114D68882F
:100F0000844203D3B4FBF0F001F0E2FE6888B4FB46
:100F1000F0F100FB11444FF47A706043BDE870407B
:100F2000CEE770B5054600244FF47A7603E03046EC
:100F3000FFF7C6FF641CAC42F9D370BD200000204F
:100F400040420F00640000200648804706480047E2
:100F5000FEE7FEE7FEE7FEE7FEE7FEE7FEE7FEE769
:100F6000FEE7FEE79D070008310100082849084315
:100F700028490860704730B50F23C27801780125F1
:100F8000F2B1244A126801F1E02102F4E062C2F5F4
:100F9000E062120AC2F10404D3404278A24084788D
:100FA0001C401443220181F80024007800F01F0146
:100FB0008D404009800000F1E020C0F8005130BDB4
:100FC00001F01F0085404809800000F1E020C0F8D2
:100FD000805130BD104A114001430E48001F01608E
:100FE00070470C4A121D0029116801D0014300E02E
:100FF0008143116070474FF0E0210428086903D055
:1010000020F004000861704740F00400FAE7000097
:101010000000FA050CED00E080FFFF1F8F4910B5BE
:10102000884206D10121042000F049FA0021042061
:101030003BE08B49884206D10121082000F03FFAAD
:101040000021082031E08749884206D10121102083
:1010500000F035FA0021102027E08349884206D1AC
:101060000121202000F02BFA002120201DE07F49E3
:10107000884206D10121402000F021FA00214020C1
:1010800013E07B49884206D10121802000F017FA45
:101090000021802009E0774988420AD18415012186
:1010A000204600F00CFA00212046BDE8104000F078
:1010B00006BA10BD10B50121084600F000FA002163
:1010C000BDE81040012000F0FAB9F0B5CC7800225C
:1010D00004F00F03E40601D58C7823430C784FF01D
:1010E0000F0C14F0FF0F4FF0010E1BD005680E8897
:1010F0000EFA02F42640A64210D196000CFA06F72A
:1011000025EA070703FA06F5CE783D43282E02D0DC
:10111000482E02D002E0446100E00461521C082A1B
:10112000E5D305600A88FF2A1CD94468002202F131
:1011300008060EFA06F50E882E40AE420ED1960035
:101140000CFA06F7BC4303FA06F7CE783C43282E88
:1011500000D14561CE78482E00D10561521C082A85
:10116000E5D34460F0BD4FF6FF710180022181702C
:101170000421C17070470246002092680A4200D0E4
:1011800001207047806880B2704702460020D26814
:101190000A4200D001207047C06880B270470161E8
:1011A0007047416170470AB1016170474161704702
:1011B000C160704741F480328261816182618169DE
:1011C000806970472C4B10B51A684FF68074224026
:1011D00042EA00100843186010BD2849C8617047F2
:1011E000F0B5254C002801DAE36900E06368450D9D
:1011F0002E0185B2C0F30157B540C0F30342032F5F
:1012000005D0C6020AD503269640B34307E023F073
:101210007062636823F07063636002E0AB4343F085
:10122000706201B12A43002801DAE261F0BD626018
:10123000F0BD10B58A0721F003040F49120F2144B5
:101240000F238C6893409C438C608B6890400343D1
:101250008B6010BD0949C1F8DC00704700080140EF
:10126000000C014000100140001401400018014032
:10127000001C01400020014000000140000020420D
:10128000A548016841F0010101604168A34A11408D
:1012900041600168A24A11400160016821F4802187
:1012A0000160416821F4FE0141604FF41F0181603B
:1012B000704799490A6822F480320A600A6822F469
:1012C00080220A60B0F5803F07D0B0F5802F03D1AF
:1012D000086840F4A02008607047086840F4803037
:1012E000F9E70346002059098B4A01290AD002294F
:1012F0000AD0516A03F01F02012393400B4200D031
:10130000012070471168F5E7116AF3E718B500206E
:101310004FF4A06400903120FFF7E3FF0099491CCF
:101320000091A14201D00028F5D03120FFF7D9FF6C
:10133000002800D0012018BD774A116821F0F8017B
:1013400041EAC00010607047764908607047724BF0
:101350005A68084322F47C12104358607047714960
:10136000086670476C4A516821F0030101435160DF
:1013700070476948406800F00C007047664A516841
:1013800021F0F001014351607047634A516821F434
:10139000E0610143516070475F4A516821F4605138
:1013A00041EAC000506070475B4A0029517A01D081
:1013B000014300E08143517270475A49C1F8D80097
:1013C0007047554A516821F44041014351607047CC
:1013D0005149002281F8202081F82020012802D0E4
:1013E000042802D1052081F8200070474E4908608A
:1013F000704749490A6A02430A6270474A494439B8
:101400000860704730B5444A5168484B11F00C01F0
:1014100003D0042901D0082901D0036012E05168EB
:10142000536801F470114FF0020413F4803F04EB91
:10143000914102D053689B0301D53D4B00E03B4BEB
:101440005943016051680F2303EA1111394B5C5C69
:101450000168E14041605468072505EA14241C5DD9
:1014600021FA04F48460546805EAD4241B5DD94051
:10147000C1605268032303EA92322E4B1B1F9A5C11
:10148000B1FBF2F1016130BD234A0029516901D05D
:10149000014300E08143516170471F4A002991696F
:1014A00001D0014300E08143916170471A4A00294D
:1014B000D16901D0014300E08143D1617047164AF0
:1014C0000029D16801D0014300E08143D160704719
:1014D000114A0029116901D0014300E081431161E3
:1014E000704711494039086070470E49C864704719
:1014F0000949C87170470848416A41F080714162EA
:101500007047054A0146002092680A4200D0012037
:101510007047014988727047001002400000FFF8D0
:10152000FFFFF6FE000042428004424200127A00B1
:1015300000093D006C000020C44910B588420AD162
:1015400001218C032046FFF7BAFF2046BDE810407A
:101550000021FFF7B4BFBE49884202D101214C04EB
:1015600010E0BC49884202D101218C040AE0BA494A
:10157000884202D10121CC0404E0B84988420AD152
:1015800001210C052046FFF7A3FF2046BDE81040CF
:101590000021FFF79DBF10BD30B50446008A85B01D
:1015A0000D464CF6FF710840E98801432182A0896D
:1015B0004EF6F3110840A9882A8911436A8902432B
:1015C0001143A181A08A4FF6FF410840A989014338
:1015D000A1826846FFF716FF9C48844201D1039818
:1015E00000E00298A189090400EBC00101EB0010A2
:1015F000296801D5490000E08900B0FBF1F06422C0
:10160000B0FBF2F109010B096FF018056B4300EB19
:101610008300A3891D044FF0320306D503EBC000FD
:10162000B0FBF2F000F0070005E003EB0010B0FBA8
:10163000F2F000F00F000843208105B030BD4FF4F8
:101640001651016000218180C18001810C224281FC
:101650008181704710B5028A4FF2FF031A400B8850
:101660004C8823438C88C9880C432343134303824B
:1016700010BD0021018041808180C1807047002918
:10168000818902D041F4005101E021F400518181AF
:10169000704710B5C1F3421301F01F040121A140AE
:1016A000012B07D0022B07D01430002A026805D086
:1016B0000A4304E00C30F8E71030F6E78A43026092
:1016C00010BD002A828A01D00A4300E08A43828248
:1016D0007047028A22F00F020282028A0A430282C3
:1016E0007047828922F40062828182890A43828162
:1016F00070470029818902D041F0020101E021F008
:10170000020181817047028A22F020020282028A4D
:101710000A43028270470029018A02D041F48041C5
:1017200001E021F4804101827047C1F3080181800A
:1017300070478088C0F308007047818941F001013B
:1017400081817047028BD2B20283028B42EA01216F
:1017500001837047028B02F47F420283028B0A43AB
:10176000028370470029818A02D041F0200101E004
:1017700021F02001818270470029818A02D041F046
:10178000100101E021F01001818270470029818A57
:1017900002D041F0080101E021F008018182704788
:1017A0000029818902D041F4004101E0C1F30E011A
:1017B000818170470029818A02D041F4006101E0F3
:1017C00021F4006181827047828A22F004028282C1
:1017D000828A0A43828270470029818A02D041F0BE
:1017E000020101E021F002018182704702460020DF
:1017F00012880A4200D001207047C9430180704717
:1018000070B501F01F0501260024C1F3421306FA4A
:1018100005F2012B0FD0022B0FD0838A4FEA112142
:101820000088134206FA01F600EA060001D000B172
:101830000124204670BD8389F0E7038AEEE70A0A97
:1018400001219140C94301807047000000380140E8
:101850000044004000480040004C00400050004060
:10186000C54910B5884202D1012144150AE0C34997
:10187000884202D10121041504E0C14988420AD1FD
:101880000121CC032046FFF71AFE2046BDE8104098
:101890000021FFF714BE10BD10B54268B94B0C799A
:1018A0001A400B6842EA0422134343608268B64B35
:1018B0001A40D1E9024323434C7942EA44021343DC
:1018C0008360C26A097C22F47002491EC9B242EAEE
:1018D0000151C16210BD002101600171417181603F
:1018E000C1600121017470470029816802D041F074
:1018F000010101E021F00101816070470029816848
:1019000002D041F4807101E021F480718160704760
:10191000002A4268C9B201D00A4300E08A4342600B
:101920007047816841F008018160704701460020DE
:101930008968090700D501207047816841F00401DA
:1019400081607047014600208968490700D5012061
:1019500070470029816802D041F4A00101E021F420
:10196000A00181607047014600208968490200D5C6
:10197000012070474268491E22F4604242EA413128
:10198000416070470029416802D041F4006101E0E4
:1019900021F400614160704770B5072609290AD912
:1019A000C568A1F10A0404EB4404A640B543A34072
:1019B0001D43C56007E0056901EB4104A640B5433E
:1019C000A3401D4305611F23072A09D2446B521E01
:1019D00002EB820293409C4391400C43446370BDF0
:1019E0000D2A09D2046BD21F02EB820293409C4362
:1019F00091400C43046370BDC46A0D3A02EB82024D
:101A000093409C4391400C43C46270BD002981689F
:101A100002D041F4801101E021F48011816070470F
:101A2000C06C80B2704754484C3000687047002941
:101A3000416802D041F4806101E021F4806141609D
:101A400070470029416802D041F4805101E021F43F
:101A5000805141607047826822F4E0420A4382600C
:101A600070470029816802D041F4004101E021F46F
:101A70000041816070470029816802D041F4021161
:101A800001E021F40211816070470146002089685D
:101A9000890200D50120704770B5072609290AD9A7
:101AA000C568A1F10A0404EB4404A640B543A34071
:101AB0001D43C56007E0056901EB4104A640B5433D
:101AC000A3401D430561836BC3F30154121B921C99
:101AD00002EB82021F249440A34391400B43836393
:101AE00070BD826B491E22F4401242EA01518163AB
:101AF000704708B508440090026008BD08B5084466
:101B000028300090006880B208BD42681F4B1A4020
:101B10000A4342607047416282627047426822F025
:101B20001F020A43426070471349083100280868C1
:101B300002D040F4000001E020F40000086070478B
:101B40000246002012680A4200D001207047C943B3
:101B50000160704710B50246002054680B0AC9B2F4
:101B60000C401168194202D0002C00D0012010BD99
:101B70006FEA1121016070470024014000280140F4
:101B8000003C0140FFFEF0FFFDF7F1FFFFFD3FFFCE
:101B900001684FF6FE721140016000210160416052
:101BA0008160C1606A496A4A0839904203D1486835
:101BB00040F00F0006E0664A1432904204D14868B3
:101BC00040F0F00048607047614A2832904203D1EB
:101BD000486840F47060F5E75D4A3C32904203D1BA
:101BE000486840F47040EDE7594A5032904203D1C2
:101BF000486840F47020E5E7554A6432904203D1CA
:101C0000486840F47000DDE7514A7832904203D1D1
:101C1000486840F07060D5E74E4A111F904203D1EA
:101C2000086840F00F0006E04A4A1432904204D19E
:101C3000086840F0F00008607047464A2832904239
:101C400003D1086840F47060F5E7424A3C329042A4
:101C500003D1086840F47040EDE73E4A50329042AC
:101C6000EAD1086840F47020E5E730B5026847F62D
:101C7000F0739A430C6A8B682343D1E904452C43E3
:101C800023438C692343CC6923434C6A23438C6AE6
:101C9000234313430360CA6842600A68826049684C
:101CA000C16030BD0021016041608160C16001619F
:101CB00041618161C16101624162816270470029B5
:101CC000016802D041F0010102E04FF6FE721140BE
:101CD00001607047002A026801D00A4300E08A438D
:101CE0000260704741607047406880B270470246AA
:101CF0000020D10002D51749083901E014490839FC
:101D00000968114200D001207047C10003D5114974
:101D1000091F086070470E4908394860704702463D
:101D20000020D10002D50B49083901E008490839E3
:101D30000968114200D001207047C10003D5054950
:101D4000091F086070470249083948607047000061
:101D5000080002400804024000F108014FF0FF3281
:101D6000C0E90112C16001610021016070470021DA
:101D70000161704742684A6093688B60936859605C
:101D8000916008610168491C0160704730B50C68BA
:101D9000621C02D000F1080202E0026904E01A4667
:101DA00053681D68A542FAD953684B6099608A60F0
:101DB000516008610168491C016030BDD0E9013201
:101DC00001699A60D0E901235A604A68824201D1D0
:101DD00082684A60002202610868401E08607047FD
:101DE00070B50D46040005D140F21B12F2A1F7A018
:101DF00003F0A0FC02F0ECF9D4E90F20216802FB0B
:101E0000001161600021A1632168A1600A46D4E944
:101E10000F01401E00FB0121E16021464FF0FF3021
:101E200001F8440F487004F110004DB1FFF794FF22
:101E300004F12400FFF790FF02F0E4F9012070BDE7
:101E400021690029F8D001F0A3FA0028F4D0E34971
:101E50004FF080500860BFF34F8FBFF36F8FEBE7F9
:101E60002DE9F04117460E46050005D14FF4C47226
:101E7000D1A1D6A003F05EFCBEB105FB06F0543044
:101E800002F056FA04000ED004F154007EB1206036
:101E9000C4E90F5620460121FFF7A2FF84F85070D5
:101EA00000212046A164BDE8F0810020E7E724601E
:101EB000EEE72DE9F041856B174604460026026CDB
:101EC00082B1C7B1E06803F0C1F9E168206C091A7A
:101ED000E1602268914202D26168081AE060022F34
:101EE00016D017E02068A8B9606801F062FB0646CA
:101EF000002060600EE0A06803F0A8F9216CA068E3
:101F00000844A0606168884204D32068A06001E0B2
:101F100005B16D1E6D1CA5633046C4E72DE9F34184
:101F20000F4600980026846C2CB940F6CE12A2A170
:101F3000A6A003F0FFFBA06BE16B884205D340F63F
:101F4000CF129DA1A1A003F0F5FBA06BE16B88422D
:101F50000CD294F945503A4669462046FFF7A9FF4E
:101F60000646681C05D06D1C84F845503046BDE817
:101F7000FC81606A0028F9D004F1240001F008FA1D
:101F80000028F3D00126F1E72DE9F041044602F0E4
:101F90001FF994F9455004F1240610E0A06C20B11B
:101FA00000212046FFF7BAFF04E0606A48B13046DE
:101FB00001F0EEF908B101F0A4FA6D1E6DB2002D2A
:101FC000ECDC4FF0FF3684F8456002F01BF902F0BC
:101FD000FFF894F9445004F1100709E0206948B172
:101FE000384601F0D5F908B101F08BFA6D1E6DB2DB
:101FF000002DF3DC84F84460BDE8F04102F002B942
:102000002DE9FF4F83B099468B4604004FF0000640
:1020100005D140F2D92268A16CA003F08BFBBBF183
:10202000000F07D1206C28B140F2DA2262A167A02C
:1020300003F080FBB9F1020F08D1E06B012805D055
:1020400040F2DB225CA161A003F074FB01F068FAAE
:1020500038B9059828B140F2DE2257A15BA003F001
:1020600069FB4FF0000A4FF08057DFF8708102F0F3
:10207000AFF8A06BE16B884206D3B9F1020F03D031
:10208000059800B316B325E04A4659462046FFF7A7
:1020900010FFA16C21B149462046FFF73FFF05E044
:1020A000616A19B104F1240001F072F928B1C8F88D
:1020B0000070BFF34F8FBFF36F8F02F0A3F80120C2
:1020C00007B0BDE8F08F02F09DF821E0684601F00E
:1020D000CEF9012602F096F800F09BFD02F078F8A8
:1020E00094F94400401C01D184F844A094F94500BF
:1020F000401C01D184F845A002F084F805A9684687
:1021000001F0C6F930B12046FFF73EFF00F0F3FCC6
:102110000020D5E702F05CF8A06BE16B884201D1AA
:10212000012500E0002502F06DF895B104F11000E2
:10213000059901F0D4F82046FFF726FF00F0DBFCFC
:10214000002894D1C8F80070BFF34F8FBFF36F8F92
:102150008DE72046FFF718FF00F0CDFC87E710B5AC
:10216000024600210120FFF77BFE040007D000217A
:10217000416001600B460A46C160FFF741FF2046FF
:1021800010BD10B5040005D140F241220AA10FA0F4
:1021900003F0D0FA01F0C1F96168884220D1E0680B
:1021A000401EE06005D100231A4619462046FFF77D
:1021B00027FF012010BD00002E2E5C46726565527F
:1021C000544F535C71756575652E63004572726F6F
:1021D000723A25732C25640D0A00000004ED00E01E
:1021E0000020E7E730B4026C0B46002A0BD0C16830
:1021F0001144C1604468A14201D30168C16030BC90
:10220000184603F023B830BC70472DE9FF4F83B068
:102210009B468A4604004FF0000607D140F2DC429C
:10222000AFF26C01AFF25C0003F084FABAF1000F78
:1022300009D1206C38B140F2DD42AFF28401AFF237
:10224000740003F077FA01F06BF948B9059838B1DA
:102250004FF49C62AFF2A001AFF2900003F06AFA73
:102260004FF000094FF08057DFF8188601F0B0FFFB
:10227000A56B35B351462046E668FFF7B3FFBBF1C7
:10228000000F11D0E660606A50B104F1240001F043
:102290007FF828B1C8F80070BFF34F8FBFF36F8F7E
:1022A00001F0B0FF01200BE76D1EA563206810B997
:1022B00001F02FFA606020690028F1D004F11000CD
:1022C000E5E7059808B11EB106E001F09BFF27E0A5
:1022D000684601F0CCF8012601F094FF00F099FC6B
:1022E00001F076FF94F94400401C01D184F8449039
:1022F00094F94500401C01D184F8459001F082FF1B
:1023000005A9684601F0C4F8002820460AD0FFF766
:102310003BFE00F0F0FB204600F0A6FA0028A5D016
:102320000020CDE600F0A0FAD8B1206830B901F065
:102330004FFF606801F0FFF801F064FF04F1240032
:10234000059900F0CCFF2046FFF71EFE00F0D3FBFE
:1023500000288BD1C8F80070BFF34F8FBFF36F8F89
:1023600084E72046FFF710FE00F0C5FB7EE770B55E
:102370000D46040007D14FF41E72AFF2C411AFF244
:10238000B41003F0D7F901F0C8F86168884204D1AD
:10239000E068401CE060012070BD00232A46194619
:1023A0002046FFF732FF0028F6D0E168491CE160C3
:1023B00070BD70B50C46050007D140F2BD22AFF2EA
:1023C0000821AFF2F81003F0B5F9AC4207D940F29A
:1023D000BE22AFF21C21AFF20C2003F0ABF90222B7
:1023E00000212846FFF73CFD002800D0846370BD23
:1023F0002DE9F047984615468946040007D140F27A
:102400009F32AFF24C21AFF23C2003F093F9B9F1C7
:10241000000F09D1206C38B14FF46872AFF2682117
:10242000AFF2582003F086F9B8F1020F0AD1E06B41
:10243000012807D040F2A132AFF28421AFF274201C
:1024400003F078F901F003FF5020EFF3118780F3D8
:102450001188BFF34F8FBFF36F8FA06BE16B884282
:1024600007D3B8F1020F04D0002087F31188BDE82C
:10247000F08794F94560424649462046FFF719FD2A
:10248000701C04D0761C84F845600120EDE7A06C38
:10249000012620B141462046FFF740FD06E0606A74
:1024A0000028F2D004F1240000F072FF0028ECD0E4
:1024B000002DEAD02E60E8E72DE9F0410D4604003A
:1024C00007D140F23C42AFF21031AFF2003003F0DE
:1024D00031F9206C38B14FF48862AFF22431AFF299
:1024E000143003F027F9206848B9606838B140F229
:1024F0004542AFF23C31AFF22C3003F01BF901F052
:10250000A6FE5020EFF3118680F31188BFF34F8FA2
:10251000BFF36F8FA16BE06B88421FD994F9450020
:10252000491CA163411C04D0401C84F845000120D3
:1025300015E0A06C012720B100212046FFF7EEFC3A
:1025400006E0606A0028F2D004F1240000F020FFC9
:102550000028ECD0002DEAD02F60E8E7002086F3B9
:102560001188A0E42DE9F04790468946040007D180
:102570004FF4B462AFF2C031AFF2B03003F0DAF82A
:10258000B9F1000F09D1206C38B140F2A152AFF27D
:10259000D831AFF2C83003F0CDF801F058FE50202A
:1025A000EFF3118780F31188BFF34F8FBFF36F8F65
:1025B000A66BF6B194F9445049462046FFF712FE47
:1025C000761EA663681C04D06D1C84F8445001205C
:1025D00010E020690028FAD004F1100000F0D8FEC5
:1025E0000028F4D0B8F1000FF1D00121C8F8001094
:1025F000EDE7002087F3118839E72DE9F0410E4619
:10260000040007D140F2FC52AFF25441AFF2444013
:1026100003F090F84EB9206C48B140F2FD52AFF291
:102620006841AFF2584003F085F8206C38B940F2A9
:10263000FE52AFF27C41AFF26C4003F07BF801F048
:1026400006FE5020EFF3118580F31188BFF34F8F02
:10265000BFF36F8FA06B30B131462046E768FFF7BC
:10266000C1FD0120E76085F311881CE410B504006A
:1026700007D140F22F62AFF2C041AFF2B04003F099
:1026800059F801F0A5FDA46B01F0BCFD204691E5D1
:1026900010B5040007D140F24162AFF2E441AFF25D
:1026A000D44003F047F801F093FDD4E90E10441A2A
:1026B00001F0A8FD20467DE510B5040007D140F2E9
:1026C0005162AFF20C51AFF2FC4003F033F8A06B53
:1026D00070E56D4A002102EBC1035B68834206D1BD
:1026E000002042F8310002EBC10148607047491CEC
:1026F0000829F0D3704710B5040007D140F25D629D
:10270000AFF24C51AFF23C5003F014F82046FFF703
:10271000E0FF2046BDE8104001F075BEC06C704778
:10272000C164704790F85000704710B5040007D19D
:1027300040F29372AFF28051AFF2705002F0FAFFA4
:10274000A06B08B1002035E5012033E510B5040089
:1027500007D140F2BA72AFF2A051AFF2905002F03E
:10276000E9FFA06BE16B884201D1012022E5002046
:1027700020E510B5444B002253F832401CB1521CE6
:10278000082AF9D316E543F8321003EBC20148607A
:1027900010E510B500243C4A214602EBC1035B68FA
:1027A000834202D152F8314002E0491C0829F4D397
:1027B0002046FFE470B515460E46044601F008FDBC
:1027C00094F944100020491C01D184F8440094F984
:1027D0004510491C01D184F8450001F013FDA06BA0
:1027E00028B92A46314604F1240000F0B6FD2046FF
:1027F000BDE87040FFF7C8BB00220421FFF730BBE3
:1028000070B50D46044601F0E3FCA06C08B9A06B5E
:1028100008B1002401E0A564012401F0F3FC204686
:1028200070BD10B50446806C884201D1A06B08B120
:102830000020BFE401F0CCFC0020A06401F0E2FC29
:102840000120B7E408B500230A4669460093FFF764
:10285000DCFC009808BD08B500210A4600916946D5
:10286000FFF780FE009808BD10B5044601F0B0FCEB
:10287000A06B20B1002401F0C5FC20469AE401249D
:10288000F9E7000004ED00E03C0300202DE9F041F1
:10289000054601F09DFCFE4EB068401CB0603068FB
:1028A000FC4F10B1706930B32BE03560B06801287F
:1028B00027D1002404EB840007EB8000FFF74CFADB
:1028C000641C202CF6D3F448FFF746FAF248143083
:1028D000FFF742FAF0482830FFF73EFAEE483C3066
:1028E000FFF73AFAEC485030FFF736FAEA487063DF
:1028F0001430B06305E03068E96AC06A884200D8E5
:102900003560706A0121401C70626864E86A32694F
:1029100081401143316100EB800007EB8000291DED
:10292000FFF728FA01F06EFC706900280CD03068BF
:10293000E96AC06A884207D2D8494FF080500860DF
:10294000BFF34F8FBFF36F8FBDE8F0812DE9FF5FBD
:102950008346DDE90E87994616468A46900001F0C7
:10296000E7FC05001AD05C2001F0E2FC040012D064
:1029700025630021CDE90241CDE900874B4632466F
:102980005146584601F087F82046FFF77FFF0120A7
:1029900004B0BDE8F09F284601F035FD4FF0FF3050
:1029A000F6E770B5044601F013FCB94D04B92C6884
:1029B000201DFFF703FA58B9E06AB64A00EB800120
:1029C00052F8211021B901218140286988432861EA
:1029D000A06A18B104F11800FFF7F0F9686A401C0A
:1029E00068622868844208D1AB48211D3C30FFF75B
:1029F000C1F96868401C686007E0A868401EA860CC
:102A0000204601F0A1F801F092F801F0FBFB6869A3
:102A1000002812D0286884420FD1286B28B140F2D8
:102A200065429FA1A3A002F085FE9C494FF0805013
:102A30000860BFF34F8FBFF36F8F70BD2DE9F0417A
:102A4000934F0026386B38B1B869401CB861F869FB
:102A500000B10126304677E7FD686D1CFD6011D19D
:102A6000786B006828B140F6D9128DA191A002F0D0
:102A700061FE786BB96B7963B863386A401C386261
:102A800001F055F8B86ADFF80C82854209D3786BFB
:102A9000006880B1786BC068C468606885420DD2F8
:102AA000B8623868C06A00EB800158F8210001283C
:102AB000CDD90126CBE74FF0FF30F1E7201DFFF71E
:102AC0007DF9A06A18B104F11800FFF777F9E06A00
:102AD00001213A6981401143396100EB800108EB23
:102AE0008100211DFFF746F9E06A3968C96A88420A
:102AF000CDD30126CBE72DE9F047654D00242746CD
:102B0000286B28B94FF4FD6265A16AA002F012FE9D
:102B100001F05EFB286B401E2863286BF0BBA868A1
:102B20005D4928310126C8B3DFF868918846D8F896
:102B30000010E9B1D8F80C00C46804F11800FFF7E0
:102B40003DF9201DFFF73AF9E06A2A6906FA00F11B
:102B50001143296100EB800109EB8100211DFFF782
:102B600009F9E06A2968C96A8842E0D3EE61DEE7C4
:102B70000CB100F0DCFFAC693CB1FFF75FFF00B1C6
:102B8000EE61641EF9D10020A861E86930B14349C3
:102B9000012738070860BFF34F8F00E001E0BFF363
:102BA0006F8F01F02FFB3846BDE8F0872DE9F0412B
:102BB000374E0F460446F5683068001DFFF7FEF8F3
:102BC00038B9306890F82C10012088403169814371
:102BD0003161601C08D13FB13168BDE8F0412E4839
:102BE0005030091DFFF7C6B830682C44AC42446031
:102BF000316805D2B06BBDE8F041091DFFF7C6B8DA
:102C0000706B091DFFF7C2F8B06A844200D2B4624B
:102C10009AE61F48016B491C016370472DE9F0419A
:102C20000E4605004FF0000405D140F279421CA188
:102C300020A002F07FFD2EB940F27A4218A11DA01B
:102C400002F078FD124F386B28B140F27B4214A19C
:102C500018A002F06FFDFFF7DCFFFA682868811901
:102C6000904202D9884202D804E0884201D89142B9
:102C700000D9012429601CB1881A0021FFF796FFB2
:102C8000FFF739FF002822D14FF08050034919E0A7
:102C90007C0000207C030020FC05002004ED00E007
:102CA0002E2E5C4672656552544F535C7461736B93
:102CB000732E63004572726F723A25732C25640D72
:102CC0000A0000000860BFF34F8FBFF36F8F3BE631
:102CD00010B5040014D0FE49096B39B140F2CF425F
:102CE000AFF24401AFF2340002F024FDFFF791FF90
:102CF00000212046FFF75AFFFFF7FDFE002807D10D
:102D0000F4494FF080500860BFF34F8FBFF36F8FCF
:102D100010BD70B5050007D140F2FB42AFF2800153
:102D2000AFF2700002F006FDE94E3068854201D135
:102D3000002070BD01F04CFA6C6901F063FA706B11
:102D4000844202D0B06B844201D1022070BDE248BF
:102D5000844204D1A86A0028F7D1032070BDDE4860
:102D60001438844202D00CB1012070BD042070BD23
:102D700010B5044601F02CFA0CB9D5480468E46A91
:102D800001F040FA204610BD10B5044601F05FFA8C
:102D90005020EFF3118180F31188BFF34F8FBFF301
:102DA0006F8F0CB9CA480468E06A81F3118810BDBE
:102DB0002DE9F04100260D460446202908D34FF4A2
:102DC000B062AFF22411AFF2141002F0B3FC1F2571
:102DD00001F0FEF9BE4F04B93C68E06CA8423FD058
:102DE0003968854206D98C4207D03968C96AA94238
:102DF00002D902E08C4200D10126E16A884688426D
:102E000000D1E562E564A069002802DBC5F120007D
:102E1000A061B24D08EB8800616905EB800081423A
:102E200015D1201DFEF7CAFF012120B93A6901FA28
:102E300008F082433A61E06A3A698140114339619E
:102E400000EB800005EB8000211DFEF793FF3EB1F3
:102E5000A0494FF080500860BFF34F8FBFF36F8FD2
:102E6000BDE8F04101F0CEB970B5994D286B10B1B5
:102E70000120E86170BD0020E8612869974EB0FA32
:102E800080F0C0F11F0000EB800456F8240038B930
:102E900040F6F622AFF2F811AFF2E81002F04AFC69
:102EA00006EB840000F108024168496841609142E4
:102EB00001D149684160C868286070BD70B504469A
:102EC00001F086F9824D04B92C68201DFEF776FFCB
:102ED00058B9E06A814A00EB800152F8211021B90B
:102EE00001218140286988432861A06A18B104F152
:102EF0001800FEF763FF211D7748FEF73BFF01F046
:102F000081F9686928B101F063F900F010FE01F061
:102F100079F92868844213D1686990B1286B38B177
:102F200040F25762AFF28821AFF2782002F002FC43
:102F300068494FF080500860BFF34F8FBFF36F8F29
:102F400070BD6548A9680068884202D100202860E9
:102F500070BDBDE8704087E770B50025040007D15B
:102F600040F28162AFF2C821AFF2B82002F0E2FB7A
:102F700059496069884205D1A06A2839884201D040
:102F800000B90125284670BD70B504002BD0504D06
:102F90002868844231D001F01BF92046FFF7DCFF9E
:102FA000E8B1201DFEF70AFFE06A01212A6981408D
:102FB00011432961494900EB800001EB8000211D8C
:102FC000FEF7D8FEE06A2968C96A884207D34149FA
:102FD0004FF080500860BFF34F8FBFF36F8FBDE895
:102FE000704001F00FB940F2AB62AFF24C31AFF27A
:102FF0003C30BDE8704002F09DBB70BD2DE9F04152
:103000000026040007D140F2E262AFF26C31AFF269
:103010005C3002F08FFB01F01AF95020EFF31185BC
:1030200080F31188BFF34F8FBFF36F8F2046FFF7F8
:1030300093FFF0B1264F386B20B1274804F11801F7
:10304000283814E0E06A3968C96A884200D301264A
:10305000201DFEF7B3FEE06A01213A698140114369
:1030600039611E4900EB800001EB8000211DFEF755
:1030700081FE85F31188304666E4184E4FF0805487
:10308000144D00F06BFD30680128FAD92C60BFF3B5
:103090004F8FBFF36F8FF4E71CB50D4800242C3021
:1030A000CDE90040234682220DA10F48FFF74EFCD8
:1030B000012803D100F06DFE01281BD0401C2BD14C
:1030C00040F28472AFF22841AFF2184002B00DE036
:1030D0007C00002004ED00E04C0600207C03002072
:1030E00049444C45000000007B300008BDE810401A
:1030F00002F020BB502080F31188BFF34F8FBFF345
:103100006F8FFA484FF0FF31816201214161C46045
:10311000BDE81C4001F01AB81CBD502080F3118896
:10312000BFF34F8FBFF36F8FF0490020486101F06C
:1031300043B8EE48C068704710B501F088F8EB4816
:10314000C06810BDE9488068704710B510B10446EA
:103150001CB10AE0E5480468FAE740F68C02AFF2D9
:10316000C041AFF2B04002F0E5FA04F1340010BD06
:103170002DE9F0471E4691460C4607000ED0054645
:1031800005F13400C4E90050E86A2061286BE06171
:10319000686CA060207B032803D00AE0D348056850
:1031A000EEE7FFF736FDA86A08B102202073FFF7AB
:1031B000A2FC4FF00008E86CC4E90508052E01D018
:1031C000267303E03846FFF7A4FD2073B9F1000F22
:1031D0000AD00021286B01E0401C491C0278A52A76
:1031E000FAD088082084DFE4A4F82080DCE42DE90C
:1031F000F0478146086892460C460025F8B14868B9
:1032000001F1080640684860B04201D1406848605A
:10321000D0F80C80606842686260B24201D15168A7
:103220006160606805EBC50109EB8101C768534621
:1032300001223846FFF79CFF6D1C4745EAD128461E
:10324000B2E42DE9F04717460A4606460024202539
:10325000FFF7DFFCDFF89482D8F8080082423AD307
:10326000DFF88C926D1E05EB850104EBC40009EBC1
:10327000810106EB80000122FFF7B9FF0444002D15
:10328000F0D104EBC40006EB800002224546D8F8DA
:103290003410FFF7ACFF044404EBC40006EB8000DD
:1032A0000222A96BFFF7A3FF044404EBC40006EB62
:1032B000800004228F49FFF79AFF04448D4904EBF4
:1032C000C40006EB800003221431FFF790FF044492
:1032D0000FB100203860FFF70EFC204664E470B5A3
:1032E0000D46040007D140F60632AFF24C61AFF252
:1032F0003C6002F01FFA7D48016820461831FEF755
:1033000045FD2846BDE8704001214FE42DE9F0411C
:1033100017460E46050007D140F61732AFF280611E
:10332000AFF2706002F006FA704C206B38B940F6CC
:103330001B32AFF29461AFF2846002F0FBF92168B6
:1033400046F000408861216828461831FEF712FDDA
:103350003846BDE8F041012128E470B514460E4618
:10336000050007D140F63132AFF2CC61AFF2BC605C
:1033700002F0E0F95D48016828461831FEF7FAFCD2
:103380000CB14FF0FF3621463046BDE870400DE4E9
:103390002DE9F041C068C4683CB940F66132AFF233
:1033A0000071AFF2F06002F0C5F904F118000746B1
:1033B000FEF704FD4D4D286B012660B14D4839469E
:1033C0001438FEF7D7FCE06A2968C96A884212D926
:1033D0000120EE611CE4201DFEF7F0FCE06A2A6982
:1033E00006FA00F111432961414900EB800001EB2D
:1033F0008000211DE5E700200AE470B53B4D06463C
:103400000C46286B38B940F69932AFF26C71AFF2C6
:103410005C7002F08FF944F000403060F4683CB911
:1034200040F6A132AFF28871AFF2787002F082F903
:103430003046FEF7C3FC201DFEF7C0FCE06A012603
:103440002A6906FA00F111432961294900EB80003D
:1034500001EB8000211DFEF78DFCE06A2968C96A36
:10346000884202D90120EE6170BD002070BD10B508
:10347000040007D140F6C132AFF2DC71AFF2CC707C
:1034800002F058F91948016A2160C068606010BDF7
:1034900070B50D46040007D140F6CB32AFF60001FF
:1034A000AFF2F07002F046F93DB940F6CC32AFF61B
:1034B0001001AFF6000002F03DF900F089FE0B4A62
:1034C000D06829684B1C0FD02368126A934202D03F
:1034D0006268824210D96268801A88420CD2081A47
:1034E00028602046FFF7C3FF002406E07C00002090
:1034F0007C03002038060020012400F083FE2046D3
:1035000070BDFF490120C8617047002800D0806C61
:103510007047002800D081647047F9480068704700
:10352000F748416919B1006B18B1002070470120BC
:1035300070470220704770B5040039D0F04DE06A42
:103540002968C96A884233D2A069002804DB286848
:10355000C06AC0F12000A061E06AEA4E00EB800082
:10356000616906EB800081421FD1201DFEF726FC19
:10357000012150B9E06A00EB800256F8222022B9FE
:103580002A6901FA00F082432A612868C06AE06271
:103590002A6981401143296100EB800006EB80001D
:1035A000211DBDE87040FEF7E5BB2868C06AE062F7
:1035B00070BD70B504004FF0000640D0D04D2868B3
:1035C000844207D040F6C762AFF62C11AFF61C104C
:1035D00002F0B0F8206D38B940F6C962AFF640117C
:1035E000AFF6301002F0A6F8206D401E2065E26CA8
:1035F000E16A914223D010BB201DFEF7DFFBC149D9
:10360000012250B9E06A00EB800351F8233023B95E
:103610002B6902FA00F083432B61E06CE062C0F199
:103620002000A061E06A2B6982401A432A6100EB06
:10363000800001EB8000211DFEF79CFB0126304637
:1036400070BD2DE9FF41002705460770AC48816831
:103650000291806800EBC000800000F069FE060067
:103660004BD000220299FFF7ECFDCDE90207384666
:103670003AE000EBC00006EB8001087B01280FD088
:1036800002280FD003280FD004280FD00024496847
:10369000284601F026FE284601F00EFE202109E012
:1036A0005224F4E74224F2E75324F0E74424EEE7FF
:1036B0002954401C0F28FBD32F540544039800EBDA
:1036C000C00006EB80008268018CCDE9001203691E
:1036D00022468DA1284602F03DF8284601F0ECFD77
:1036E00005440398401C039002998842C1D304B05A
:1036F0003046BDE8F04100F086BEBDE8FF8180495C
:1037000008680A688069D26A0968C2F120028A6181
:1037100070477B49086818B10868026D521C026541
:103720000868704770B50C46064600F051FD744DB0
:103730002868406D80B92968012081F858005CB183
:1037400001212046FFF732FA73494FF0805008609C
:10375000BFF34F8FBFF36F8F00F054FD00F038FDC3
:103760002868446D002034B116B12968486502E02C
:103770002A68611E5165296881F8580000F042FDF1
:10378000204670BD2DE9F0411E4615468846074685
:1037900000F01EFD5A4C206890F85800022814D002
:1037A0002068416DB94341652168012081F85800C6
:1037B0005EB101213046FFF7F9F957494FF08050CB
:1037C0000860BFF34F8FBFF36F8F00F01BFD00F059
:1037D000FFFC15B12068406D2860206890F8580003
:1037E00001280DD02068416D21EA080141650125BD
:1037F0002168002081F8580000F004FD28463BE4D1
:103800000025F5E72DE9F0411F4690460D460400DE
:103810004FF0010607D141F2FD02AFF67C31AFF661
:103820006C3001F087FF00F0D3FC0FB1606D3860A1
:1038300094F85800022184F85810B8F1050F0ED200
:10384000DFE808F00D03060C0A00616D294301E072
:10385000616D491C616502E0022803D0656501289D
:1038600002D02AE0002628E0201DFEF7A7FA244D0A
:10387000E06A01212A69814011432961214900EB55
:10388000800001EB8000211DFEF774FAA06A38B1B8
:1038900041F23512AFF6F831AFF6E83001F04AFFE9
:1038A000E06A2968C96A884207D91B494FF08050ED
:1038B0000860BFF34F8FBFF36F8F00F0A3FC30465B
:1038C00088E52DE9F0471F46DDF8209092460D4629
:1038D00004004FF0010807D141F26812AFF64041F1
:1038E000AFF6304001F026FF00F0B1FC5020EFF3BE
:1038F000118680F31188BFF34F8FBFF36F8F0DE0F8
:103900007C0000207C03002009256309257509251A
:10391000750925750D0A000004ED00E00FB1606D1A
:10392000386094F85800022184F85810BAF1050F55
:103930000ED2DFE80AF00D03060C0A00616D294380
:1039400001E0616D491C616502E0022803D06565F4
:10395000012803D031E04FF000082EE0A06A38B112
:1039600041F2AF12AFF6C841AFF6B84001F0E2FE47
:103970008D4D286B012778B104F118018B48FEF7B3
:10398000F9F9E06A2968C96A884216D9B9F1000FC5
:1039900012D0C9F8007010E0201DFEF70FFAE06A9F
:1039A0002A6907FA00F11143296100EB8001804880
:1039B00000EB8100211DE2E7EF6186F311884046AC
:1039C00011E42DE9F0418846040007D141F2E312E9
:1039D000AFF63451AFF6245001F0ACFE00F037FCE6
:1039E0005020EFF3118780F31188BFF34F8FBFF39F
:1039F0006F8F94F85800022184F85810616D491CAB
:103A0000616501282ED1A06A38B141F20922AFF6D2
:103A10007051AFF6605001F08DFE634D286B0126AA
:103A200078B104F118016148FEF7A4F9E06A296849
:103A3000C96A884216D9B8F1000F12D0C8F80060E0
:103A400010E0201DFEF7BAF9E06A2A6906FA00F1D3
:103A500011432961564900EB800001EB8000211DD4
:103A6000E2E7EE6187F31188B4E410B558B104467B
:103A700000F0AEFB94F85800022807D0002400F0B4
:103A8000C1FB204610BD48480468F1E7002084F8D7
:103A900058000124F3E72DE9F0470E46DDE90984DB
:103AA0001746824691009946089DA522206B01F099
:103AB000DFFB6FF00301206B01EB8701084420F06E
:103AC0000707780705D040F22B323AA13EA001F05B
:103AD00031FE00202218315C82F83410315C11B1C3
:103AE000401C1028F6D3002684F84360202D00D314
:103AF0001F25E562C4E91356201DFEF738F904F1CD
:103B00001800FEF734F92461C5F120006462A06159
:103B1000666584F858604A465146384600F0F9FA1E
:103B20002060B8F1000F01D0C8F8004048E71E48F7
:103B3000416B096829B1416BC968C96849688162EC
:103B400070474FF0FF31FAE710B50446006B00F004
:103B50005AFC2046BDE8104000F055BC70B5134E2D
:103B6000114D14361CE0FFF754F8306820B10024E2
:103B7000FEF7C1FFA4B901E00124F9E700F028FB3A
:103B8000F068C468201DFEF719F9A868401EA860F7
:103B90006868401E686000F035FB2046FFF7D4FFE0
:103BA00068680028DFD170BD7C000020240600205A
:103BB0007C0300202E2E5C4672656552544F535C88
:103BC0007461736B732E63004572726F723A257362
:103BD0002C25640D0A00000070B500244160F74DEB
:103BE0000061914206D8D11A8269914206D2011D24
:103BF000286907E09A4203D2994201D3012403E0E5
:103C0000011DE868FEF7C2F8204670BD2DE9FF47A8
:103C10009946DDF830A090460D4606004FF00007AB
:103C200005D14FF4D372E6A1EBA001F083FDE34C84
:103C3000206880B1CDE900580296062D11DAFFF711
:103C40006FFC02284FF0000309D00022694620686B
:103C5000FEF7D6F9074604B03846BDE8F08752466D
:103C6000F4E700234A466946FEF7C2FBF2E770B567
:103C700086B0D24E53E00198002806DADDE9030150
:103C8000029A90470198002849DB039C606910B1B3
:103C9000201DFEF793F805A800F04DF905460198A0
:103CA0000A283CD2DFE800F00505053B273805056A
:103CB0003B270298A169034601442A462046FFF7A4
:103CC0008BFF00282BD0616A20468847E0690128D5
:103CD00025D1002000900298A169002342181946BE
:103CE0002046FFF793FFD0B940F22132B4A1BAA029
:103CF00001F020FD13E00298A06128B94FF44E7244
:103D0000AFA1B5A001F016FDA0692B4641191A46D6
:103D10002046FFF761FF02E0204600F074FB00231D
:103D20001A4601A93068FEF770FA0028A3D106B040
:103D300070BDA24CE068016839B1002139B10020A2
:103D400000F00BF9FFF793FFF4E70121F6E7C068F5
:103D50000068F5E710B500F03BFA984C2068A0B970
:103D6000A148FDF7F9FFA0481430FDF7F5FF9E4884
:103D7000E06014302061002210210520FEF770F869
:103D8000206010B199A1FEF7F4FCBDE8104000F0EE
:103D900039BA1CB50024FFF7DDFF8848006868B118
:103DA00086491F20091DCDE9000100234FF48272CE
:103DB00090A19248FEF7CAFD040005D140F23312EB
:103DC0007FA185A001F0B6FC20461CBD2DE9F0477F
:103DD0000746994616460D462C20DDF820A000F037
:103DE000A7FA040014D0B8464F46D1462DB94FF477
:103DF000C67283A188A001F09DFCFFF7ABFF04F120
:103E00001801C4F8008081E8E002201DFDF7AFFF33
:103E1000204622E710B5694C606828B94FF4E87273
:103E200067A16DA001F086FC606810BD10B50400AC
:103E300005D140F2D91262A167A001F07BFCA06914
:103E400010BD10B5040005D140F2E3125CA162A0E0
:103E500001F070FC606810BD10B5040005D140F29F
:103E6000ED1257A15CA001F065FC206810BD10B5F3
:103E7000040005D140F2DA3251A157A001F05AFCFA
:103E800000F0A6F9606908B1012400E0002400F008
:103E9000B9F9204610BD10B5040005D140F2EF324B
:103EA00047A14DA001F046FC00F092F9246A00F011
:103EB000A9F9204610BD70B50D46040005D140F2A9
:103EC000FF323FA144A001F035FC00F081F92562EA
:103ED000BDE8704000F096B97FB56FF0010401AE07
:103EE000009486E8070035481D4600232A466946A7
:103EF0000068FEF77DFA04B070BD2DE9FF412F4C3C
:103F000007469846206815460E4628B940F22B42CF
:103F10002BA131A001F00EFC4FF0FF30CDE90007DE
:103F2000CDE902650023424669462068FEF768F83D
:103F300004B0BDE8F08170B50546FFF7FAF81F4EF2
:103F40000446B068844203D200F070F8012000E01B
:103F5000002028602046B46070BDF8B50D460646C6
:103F6000FEF757FE6846FFF7E6FF0446009810B1DB
:103F7000FEF7C1FDF8BD1148ADB101690968D9B1BD
:103F80000025311B2A460068FEF714FCFEF7B3FD3E
:103F90000028EFD124494FF080500860BFF34F8FC5
:103FA000BFF36F8FF8BDA642EBD8FEF7A4FD214604
:103FB000304600F06EF8F8BD0125E2E7B8000020B9
:103FC0002E2E5C4672656552544F535C74696D6564
:103FD00072732E63000000004572726F723A25738F
:103FE0002C25640D0A00000060060020546D7251FB
:103FF00000000000546D722053766300333D0008CA
:104000002E2E5C4672656552544F535C74696D6523
:1040100072732E63000000004572726F723A25734E
:104020002C25640D0A00000004ED00E0F8B52F4EC9
:1040300027E0C068C4680568201DFDF7BFFE616AFF
:1040400020468847E06901281BD1A0692844A8427E
:1040500006D924616060211DF068FDF797FE10E02D
:1040600000200346014600902A462046FFF7CEFD79
:1040700038B940F29232AFF27801AFF2640001F049
:1040800059FBF06801680029D3D13169C6E90310F2
:10409000F8BDF8B5054615480E46C068C068C46846
:1040A000201DFDF78BFEE069012818D1A0692B4681
:1040B000411932462046FFF78FFD80B100200346AC
:1040C000014600902A462046FFF7A0FD38B94FF47C
:1040D0000272AFF2D401AFF2C00001F02BFB616AB3
:1040E00001B02046BDE8F04008470000B8000020BD
:1040F00069484068401C04D0F42268A172A001F015
:1041000019FB502080F31188BFF34F8FBFF36F8FDF
:10411000FEE710B5031F4FF080741C601B1F21F0D9
:1041200001011960191F6C4B0B60143940380A608B
:1041300010BD6A484FF47A710068B0FBF1F14FF09E
:10414000E020491E41610721016170471CB56449A7
:1041500008780190FF20087008788DF800009DF81D
:1041600000004D4A00F0500010700720906007E0FA
:104170009068401E90609DF8000040008DF800009F
:104180009DF800000006F3D4107A000200F4E0600D
:104190009060019808705348016841F47001016013
:1041A000016841F070410160FFF7C3FF00205060DB
:1041B000FBF7DAFF00201CBD37484068B0F57A7F76
:1041C00005D04FF4B57235A13FA001F0B3BA7047E6
:1041D000502080F31188BFF34F8FBFF36F8F2E49AC
:1041E0004868401C486001280BD13E481C380068D4
:1041F00010F0FF0F05D04FF4BD7228A132A001F0DE
:1042000099BA704710B5244C606828B940F2811201
:1042100022A12DA001F08EFA6068401E606001D1DD
:1042200080F3118810BD10B5502080F31188BFF3C2
:104230004F8FBFF36F8FFEF701FC20B129494FF07C
:1042400080501C390860002080F3118810BD10B523
:10425000FBF7C0FF104C10280CD300F1E02090F8C1
:10426000F0032178884205D24FF42A720BA116A0E0
:1042700001F060FA1B4814380068A16800F4E0609F
:10428000884207D9BDE810404FF42E7203A10EA05A
:1042900001F050BA10BD0000CC0000202E2E5C466C
:1042A00072656552544F535C706F727461626C65D5
:1042B0005C525644535C41524D5F434D335C706FCA
:1042C00072742E63000000004572726F723A25739B
:1042D0002C25640D0A000000F14000082000002099
:1042E00000E400E020ED00E030B5744900E0114644
:1042F0000A688242FBD34B685C18844203D1406851
:1043000018444860084643681C18944209D16B4C15
:10431000103C2468A24209D052681A4442600A68DC
:1043200012680260814200D0086030BD0460F9E785
:104330002DE9F04105460026FEF76BFC5F4F103F6C
:10434000386808B900F098F8F86805424ED1002D99
:104350004CD0083568070BD005F00700C0F1080005
:104360000544680704D0BF2255A15FA001F0E2F91F
:10437000002D3BD07868854238D8504908460468FB
:1043800001E0214604466068A84202D22068002865
:10439000F7D13868B846844228D00E682068086093
:1043A00060680836401B10280ED96719780704D0BA
:1043B000EC2243A14CA001F0BDF96068401B78607D
:1043C00038466560FFF790FF6168D8F80400424600
:1043D000401AC8F80400D8F80830984200D290601B
:1043E000D8F80C0001430020C4E90001FEF783FB6C
:1043F000700705D04FF4967231A13BA001F09AF9F5
:104400003046BDE8F08170B500282BD02B4DA0F1CF
:104410000804103D6068E968084205D14FF4A072B5
:1044200027A131A001F086F9206828B140F241129D
:1044300023A12DA001F07EF96068E968084211D03F
:104440002268002A0ED188436060FEF7E2FB6068B4
:104450006968084468602046FFF746FFBDE8704081
:10446000FEF749BB70BD15481038406870471348C7
:1044700010388068704770471F484FF4A0414207CA
:1044800006D0C01D1C4920F00700411AC1F5A0410B
:104490000A4A00230144C2E900030839103A21F016
:1044A000070111604B600B600B1AC0E900139360A9
:1044B0004FF000405360D06070470000E8000020DB
:1044C0002E2E5C4672656552544F535C706F727449
:1044D00061626C655C4D656D4D616E675C686561C0
:1044E000705F342E630000004572726F723A25735C
:1044F0002C25640D0A00000088060020002801D049
:104500000168C16070470146C0688068C860704734
:1045100038B1C16829B189684068814201D0012061
:10452000704700207047826802EBD273B1EB630FD3
:1045300006DC0068002902DB8068491EFCD5704754
:104540004068511A00E04068491EFCD5704770B5BC
:10455000040004D0002902DBA068884201DC0020AE
:1045600070BD2046FFF7DFFFD0E9012105689160AB
:10457000D0E901125160A168491EA16001F044FB1D
:10458000284670BD10B504460C2001F065FB0021E3
:104590008160C0E9004110BD10B504460846FFF730
:1045A000F1FF6168496841606168816061684968DC
:1045B000886061684860A068401CA06010BD10B5AC
:1045C00004460846FFF7DEFF21688968816021689C
:1045D000416021688968486021688860A068401C43
:1045E000A06010BD70B50D46040004D0002D02DBA4
:1045F000A068A84201DA002070BD35B1A84209D1F7
:1046000011462046FFF7C8FF15E011462046FFF788
:10461000D6FF10E01046FFF7B5FF064629462046B4
:10462000FFF781FF4168C6E9011041688E6046606E
:10463000A068401CA060012070BD70B5040010D0BF
:10464000A06870B16168486842684A604268616801
:104650009160056801F0D8FAA068401EA060284665
:1046600070BD002070BD70B5040010D0A06870B19E
:104670002168886882688A6082682168516005685C
:1046800001F0C2FAA068401EA060284670BD00205C
:1046900070BD10B58A6804469AB1486888B18368CD
:1046A0008B420ED153688B420BD15060D1E901028D
:1046B0008260084601F0A8FAA068401EA0600120B0
:1046C00010BD002010BD00688168002000E0401C83
:1046D00089680029FBD1704700B5FFF7F4FF801C03
:1046E00000BD006802688A4208D0806803E0036861
:1046F0008B4204D010468268002AF8D1002070470F
:1047000010B5044600680068884201D1002010BD41
:104710002046FFF7E6FF0028F9D0D0E901128A60B1
:10472000D0E90112516001F06FFAA068401EA0604C
:10473000012010BD70B505464C2001F08DFA0446ED
:104740000C2001F089FA20600C2001F085FA6060ED
:10475000206800210560606805602068416060682D
:104760008160D4E900028260D4E900025060AFF2B7
:104770006F00A160E062AFF2B910E061AFF2B90082
:104780006062AFF2A1002063AFF2F3102062AFF2DB
:10479000B700A062AFF20510A064AFF235106063FD
:1047A000AFF26910A063AFF2C310E063AFF2612013
:1047B0002064AFF28D2060642068E060AFF2AF202B
:1047C0002061AFF2BD206061AFF2CF20A061204632
:1047D00070BD10B50446206820B18168216001F0E9
:1047E00013FAF8E72046BDE8104001F00DBA0000CA
:1047F0002DE9F041234F80467868816821B1D0E9E6
:1048000005610569884711E00020BDE8F0817868FE
:10481000B04704680146227A424507D17868826C25
:104820009047204600F01DF90120EEE77868A84780
:104830000028ECD1E9E770B5124D0446686881683C
:10484000102903DB416B884700F00BF94FF4FA7035
:10485000A08268682146026ABDE87040104710B522
:1048600009A0FFF767FF074C60600C2001F0F4F926
:10487000206061680160AFF241014160AFF28F01D9
:10488000816010BDF00000206563630010B5002258
:104890007A4C05E010F8013B5340491EE25CC9B276
:1048A0000029F7D10AB1002010BD012010BD10B5BC
:1048B000724C05E010F8013B5340491EE25CC9B25E
:1048C0000029F7D1104610BD10B5024600206B4CF0
:1048D00005E012F8013B4340491EE05CC9B20029E3
:1048E000F7D110BD7FB504460D46182001F0B4F98C
:1048F000C0E90045BDF80810A0F809109DF80A109D
:10490000C172BDF80C1081819DF80E1081731021C9
:10491000817404B070BD13B5182001F09DF9BDF885
:104920000010A0F809109DF80210C172BDF8041023
:1049300081819DF806108173102181741CBD2DE9C1
:10494000F04105468C461346002705E0087801280B
:1049500005D05B1EDBB2491C002BF7D139460C0099
:104960004FF0FF3647D0A4EB0C00101AC1B260180C
:1049700004E00278042A05D0491EC9B2401E00296D
:10498000F7D13846B0B310F8011C071B2972B81EC6
:10499000C1B2A01CFFF77AFF60B36078401EA87414
:1049A000A0786872E078A8722079E872607928733C
:1049B000A0796873E079093FA87317F0FF062E719C
:1049C0001BD0304601F048F9324604F10801286056
:1049D00000F03CFC2A48297B027891420FD1697B88
:1049E000427891420BD1A97B8078814207D1012086
:1049F000BDE8F081FFE73046FAE70020F8E7022043
:104A0000F6E710B50446002201210930FFF74FFFF9
:104A10000246012104F10A00FFF749FF0246012185
:104A200004F10B00FFF743FF0246012104F10C00E3
:104A3000FFF73DFF0246012104F10D00FFF737FFAC
:104A40000246012104F10E00FFF731FF02462179F1
:104A50002068BDE810402AE7002801D001F0D4B852
:104A6000704710B5040007D02068FFF7F5FF204617
:104A7000BDE8104001F0C8B810BD0000C45C0008DB
:104A8000360000206C484068416B084710B56BA0A9
:104A9000FFF750FE684C60600C2001F0DDF800214B
:104AA0002060017061684160AFF22701816010BD34
:104AB0002DE9F84FDFF88C91DFF88CB1DFF88C81AD
:104AC00099F800000026DFF888A100287AD04FF47A
:104AD000807421465F4800F0D2FB5F4F5F495D481C
:104AE0003A8800F0B3FB21465C4800F0C8FB182070
:104AF00001F0B2F804463A785649FFF720FF050066
:104B00003E800FD0681C0DD04B4F7868816810290B
:104B100003DB416B8847FFF7A4FF012D09D0022D6D
:104B20002BD04DE0204601F06FF88AF80060BDE818
:104B3000F88F207902280ED821680844484910F8D7
:104B4000010C096889688847206801F05DF82046F3
:104B500001F05AF834E078682146026A9047217AD9
:104B6000B4F80900ADF80000E07A8DF80200D8F83A
:104B7000000082680098904722E0A07CD8B92068A5
:104B800001F042F8022001F067F802212060217153
:104B9000FF2101702168207A4870B4F80900A081D3
:104BA000E07AA073BBF80010A4F809109BF802008B
:104BB000E0721020A074D8F80000416820468847B1
:104BC00089F800609AF8000054460028AFD0254DBF
:104BD000DFF894902978A1EB0900C7B24FF48071F7
:104BE0001C4800F04CFB3A4649461A4800F02EFBA0
:104BF0003946484600F043FB1820C5F8009001F004
:104C00002BF805463A461349FFF799FE78B1401C48
:104C10000DD0BBF80010A5F809109BF80200E8724F
:104C2000D8F8000041682846884726707FE7284664
:104C300000F0EAFFF9E70000F800002072656376F3
:104C40000000000044000020360000200401002085
:104C50003C00002088560020480000202802002048
:104C6000F0000020400000202801002070B5334DE6
:104C7000044628688168102903DB416B8847FFF7E9
:104C8000F0FE28682146026ABDE87040104773B5FF
:104C90000D46182000F0E0FF0446012000F0DCFF84
:104CA0002060057001202071BDF80000A0819DF8F2
:104CB0000200A07322480188A4F809108078E072ED
:104CC0002046FFF79EFE20721020A0742046BDE80B
:104CD0007C40CBE710B51BA0FFF72CFD174C2060E4
:104CE0000C2000F0B9FF6060002807D02168016047
:104CF000AFF287014160AFF26901816010BD70B50C
:104D0000124D0E4C14E0416B88470646FBF708FE37
:104D100070B13179022904D9286841683046884742
:104D200006E0012901D0022902D13046FFF799FEA1
:104D3000206881680029E6D170BD000000010020D4
:104D40003600002073656E6400000000F000002053
:104D50002DE9F041AE4C208800F0A2FB6FF00B066D
:104D6000314600F01FFB00F0B4FBDFF8A8824FF0E3
:104D700066373A46434600F021FB00F0BDFB04F1E4
:104D80000C052860608800F08BFB314600F00AFBC0
:104D900000F09FFB3A46434600F010FB00F0ACFBEE
:104DA0006860A08800F07CFB314600F0FBFA00F060
:104DB00090FB3A46434600F001FB00F09DFBA860E3
:104DC000E08800F06DFB314600F0ECFA00F081FB6A
:104DD0003A46434600F0F2FA00F08EFBE860208984
:104DE00000F05EFB314600F0DDFA00F072FB3A465F
:104DF000434600F0E3FA00F07FFB2861608900F091
:104E00004FFB314600F0CEFA00F063FB3A464346D2
:104E100000F0D4FA00F070FB6861BDE8F08170B575
:104E20008AB028227C49684600F010FAFFF790FF0C
:104E300077487A4D0C30002400696E46A86056F819
:104E40002410A86800F074FB04D804EB8400400030
:104E5000686002E0641C0A2CF1DBA8880AB080B20A
:104E600070BD10B5044640686DA100F02CFA08B181
:104E7000002010BDFFF7D3FF68490A88904202D096
:104E8000088001202073012010BD70B5012190B071
:104E90000846FCF7F9FA644E3046FCF779FE002428
:104EA0005B4806250190CDE90245301507900A942C
:104EB00080200590202008905C4800908015069086
:104EC00004944001099069463046FCF7CEFE01216A
:104ED0003046FCF7F4FE01214802FCF7DEFA01201F
:104EE0008DF831004FF46021CDE90D140B944F4C37
:104EF0008DF830004C3C8DF83C500BA92046FCF757
:104F0000CBFC6803FCF75DFA052301220A21204649
:104F1000FCF742FD052302220B212046FCF73CFD55
:104F2000052303220C212046FCF736FD052304222D
:104F30000D212046FCF730FD05231A460E212046A0
:104F4000FCF72AFD052306220F212046FCF724FD4D
:104F500001212046FCF7D2FC01212046FCF7C4FCCD
:104F60002046FCF7DEFC2046FCF7E0FC0028FAD1E6
:104F70002046FCF7E2FC2046FCF7E4FC0028FAD1CE
:104F800001212046FCF7E5FC10B070BD08B50121F9
:104F90001020FCF782FA3F20ADF8000000208DF8C9
:104FA000030069462248FCF790F8BDE808406CE72A
:104FB00008B5FFF7EBFFAFF2551000901448174B00
:104FC00017A20321243000F02FF908BD2DE9F0418C
:104FD000DFF83C8000250E4607462C4608F10C08F9
:104FE00010E0FFF7B5FE284600F05AFA58F82710EF
:104FF00000F080F900F059FA05460520FBF778FF2C
:10500000641CE4B2B442ECD3B5FBF6F080B204E722
:105010008857002066660A40C45D00080801002029
:105020004144435F50433400080002404C24014097
:10503000001001402DE9F0410025764F2C46012655
:1050400040213846FCF797F80028F9D02820FBF7D4
:1050500037FF40213846FCF78EF801280BD0C4F109
:10506000070006FA00F08543641CE4B2082CE7D37D
:105070002846BDE8F08140213846FCF77CF801283D
:10508000F9D0C4F1070006FA00F0C0B20543EBE71F
:105090002DE9F84F064640685FA100F014F910B101
:1050A0000020BDE8F88F00273225B46800F0A3F88F
:1050B000DFF8608140214046FCF773F81420FBF7CD
:1050C00017FFFFF785F840214046FCF768F81E20DF
:1050D000FBF7F6FE48208DF803004020ADF80000F5
:1050E00003208DF8020069464046FBF7EEFF4021A1
:1050F0004046FCF740F818B14DE00520FBF7E0FE14
:1051000040214046FCF737F810B1E5B3322507E0FF
:105110006D1E15F0FF05F0D145E00520FBF7D0FE30
:1051200040213C48FCF727F8012838D05DB3FFF751
:1051300081FF8146FFF77EFF8246FFF77BFF8046B7
:10514000FFF778FF0546FFF775FF834600F053F839
:1051500040213048FCF723F809EB0A0108EB050071
:105160000144594517D121780127894508D1617833
:105170008A4505D1E078854202D1A17888450AD0D8
:1051800084F8009000E00EE084F801A0E57084F857
:10519000028001203073FFF735F8384681E76D1E35
:1051A00015F0FF05B9D11027F5E738B501214020EA
:1051B000FCF773F910208DF803004020ADF80000D3
:1051C0000320144C8DF8020069462046FBF77DFF52
:1051D0002046BDE838404021FBF7E1BF08B5FFF7A6
:1051E000E4FFAFF2531000900D4B0BA201210D48CC
:1051F00000F01AF808BD08B510208DF80300402013
:10520000ADF8000003208DF8020069460148FBF765
:105210005CFF08BD001801404448543131000000D3
:1052200014010020C057002030B50028039C0AD08C
:1052300052B1157845B13BB134B10461C0E90123E5
:1052400001800021017330BD002030BD40EA010320
:105250009B0703D009E008C9121F08C0042AFAD22C
:1052600003E011F8013B00F8013B521EF9D27047F0
:10527000D2B201E000F8012B491EFBD27047002298
:10528000F6E710B513460A4604461946FFF7F0FF45
:10529000204610BD30B505462A460B4612F8010BD4
:1052A00013F8014B08B1A042F8D01CB1002802D07D
:1052B0006D1CF1E7284630BD421C10F8011B002987
:1052C000FBD1801A704710B5002200E0521C835CAD
:1052D0008C5CA34201D1002BF8D1D8B2E1B2401AC4
:1052E00010BD034611F8012B00F8012B002AF9D15B
:1052F00018467047F0B480EA0102D40F4200B2EBC6
:10530000410F02D20246084611464A0042D0C30D60
:10531000DDB2C1F3C752AD1A202D35DAC1F3160143
:1053200041F4000204B15242C5F1200602FA06F12E
:105330002A411044B3EBD05F23D0C4B1012DA0EBC0
:10534000C35009DCF0BC4FF0004202EAC352DBB2AA
:1053500000F5000000F030B9400000F1807000EB73
:10536000C350A0F1807040EAD170490009E04908BB
:1053700041EAC071A0EBC35000F50000400800EB0B
:10538000C350F0BC00F00FB96142012202EB4101B1
:10539000001BF6E7F0BC704781F00041AAE780F0FF
:1053A0000040A7E7420005D0C0F3C75252429142E5
:1053B00001DC0020704700EBC15070472DE9FE4F23
:1053C00081EA030404F0004421F0004100944FF00E
:1053D000000B23F0004350EA01045ED052EA0304BC
:1053E0005BD0C3F30A54C1F30A552C44A4F2F3343E
:1053F0000194A0FB0254C1F3130141F48011C3F3E3
:10540000130343F4801301FB024400FB034E840AA0
:10541000970A44EA815447EA8357A4FB0768029538
:105420008D0A05FB07854FEA932C04FB0C542705D6
:10543000029D4FEA065847EA1637B5EB08056EEBB2
:10544000070C870E920E47EA811742EA8312A7FBE8
:105450000201B6EB0B0164EB00042B0D43EA0C33A5
:105460005E1844EB1C50DA465146E7FB0201C5F3D7
:1054700013044FEA0B3343EA14534FEA0432019CFE
:1054800043EA0603A4F10C040294009CCDE900B4A5
:1054900000F0CFF803B0BDE8F08F00200146F9E737
:1054A00096230022114600F087B820F00040C10D7D
:1054B000C0F3160040F400007F2901DA0020704795
:1054C000962903DCC1F19601C8407047963988409F
:1054D000704700F0004230F000400AD0C10D01F5E5
:1054E0006071C0F3160042EA0151C208400711433F
:1054F000704700200146704701F0004330B421F0AE
:10550000004150EA010206D00A0DA2F56072C1F313
:105510001301002A02DC30BC00207047440F44EA2B
:10552000C104C100E01830BC00EBC25000F03BB831
:10553000002801DBC0F10040002901DBC1F100417E
:10554000884270472DE9F05F0546002092469B4651
:1055500088460646814640241BE028464146474689
:10556000224600F0D6F853465A46C01A914110D34D
:1055700011461846224600F0BDF82D1A67EB0108C7
:105580004F4622460120002100F0B4F817EB000935
:105590004E41201EA4F10104DFDC484631462A4674
:1055A0004346BDE8F09F0029A8BF7047401C490052
:1055B00008BF20F00100704710B4B0FA80FC00FA78
:1055C0000CF050EA010404BF10BC704749B1CCF1A3
:1055D000200421FA04F411FA0CF118BF012121432F
:1055E0000843A3EB0C01CB1D4FEA00614FEA1020EA
:1055F00042BF002010BC704700EBC350104400298C
:10560000A4BF10BC7047401C490008BF20F0010037
:1056100010BC704710B5141E73F1000408DA401C6A
:1056200041F1000192185B411A4301D120F00100C1
:1056300010BD2DE9F04D92469B4611B1B1FA81F2B1
:1056400002E0B0FA80F22032904600F053F80446AF
:105650000F4640EA0A0041EA0B0153465A46084306
:1056600013D0114653EA010019D0C8F14002504648
:1056700000F04FF805460E4650465946424600F0A7
:1056800039F8084305D0012004E020463946BDE83A
:10569000F08D0020054346EAE0762C4337430A9814
:1056A0006305E40AA0EB08000022FD0A44EA47541F
:1056B0000A3002D500200146E9E7010510196941C9
:1056C000DDE9084500196941BDE8F04DA2E7000099
:1056D000064C074D06E0E06840F0010394E807003F
:1056E00098471034AC42F6D3FAF726FDEC5D00087B
:1056F0000C5E0008202A04DB203A00FA02F10020A8
:1057000070479140C2F1200320FA03F319439040FF
:105710007047202A04DB203A21FA02F0002170476A
:1057200021FA02F3D040C2F1200291400843194609
:10573000704700000FB4054B10B503A9044A029846
:1057400000F02CF810BC5DF814FB0000950B00086D
:105750001C0100200FB4084B10B504A902AA03983D
:1057600000F01CF8044602A9002000F048FA204688
:1057700010BC5DF814FB0000FF5B000802E008C8E5
:10578000121F08C1002AFAD170477047002001E0BB
:1057900001C1121F002AFBD1704700002DE9FF4F05
:1057A0008DB00F460546002606E025280BD0DDE922
:1057B0000F1290476D1C761C28780028F5D111B087
:1057C0003046BDE8F08F0024A246A1460122EC49F4
:1057D00000E0044315F8013F203B02FA03F00842C1
:1057E000F7D128782A2810D06FF02F022878A0F15E
:1057F0003001092914D80AEB8A0102EB410144F077
:10580000020400EB010A6D1CF0E701CF5FEA000A19
:1058100003D544F40054CAF1000A44F002046D1C9C
:1058200028782E2817D115F8010F44F004042A28EF
:105830000ED06FF02F022878A0F1300109290AD884
:1058400009EB890102EB410100EB01096D1CF2E754
:1058500057F8049B6D1C28786C280FD006DC4C2868
:1058600017D068280DD06A2814D104E0742810D00D
:105870007A280FD10DE044F400140AE044F48014B7
:1058800001E044F440146978814202D104F58014A7
:105890006D1C6D1C2A786E2A1FD00CDC632A31D057
:1058A00004DC002A8BD0582A11D1A3E0642A68D0E6
:1058B000692A0CD165E0732A2ED004DC6F2A73D0DC
:1058C000702A04D19BE0752A6FD0782A6ED01046DA
:1058D000DDE90F129047761C50E1C4F30250022814
:1058E00006D0032809D0042801CF09D0066045E17D
:1058F00001CFF117C0E9006140E101CF06803DE131
:1059000006703BE117F8040B8DF8000000208DF8BD
:105910000100EB46012003E057F804BB4FF0FF30D5
:1059200061074FF0000102D40DE008F10101884643
:1059300049450FDA8045F8DB1BF808100029F4D13F
:1059400008E008F1010188468142FADB1BF80810E3
:105950000029F6D1DDE90F23AAEB08008146214694
:1059600000F036F9304400EB080604E0DDE90F12E0
:105970001BF8010B9047B8F10108F7D221464846C1
:10598000F7E00A21C4F302534FF0000B0891022BF9
:1059900004D001CFC117032B09D00AE0FF1D27F067
:1059A0000707F7E8020108E032E01FE020E000B25C
:1059B000C117042B01D140B2C117031E71F10003BE
:1059C00007DA4FF0000CD0EB0C006CEB01012D233B
:1059D00002E0230504D52B238DF82430012303E0B6
:1059E000E30701D02023F7E7984658E00A2110E0AA
:1059F00010210EE010204FF0000B08900CE0102159
:105A00004FF0000B44F004044FF00809089103E044
:105A100008214FF0000B0891C4F30253022B04D06D
:105A200001CF0021032B06D006E0FF1D27F007075A
:105A3000F7E8020103E080B2042B00D1C0B24FF0BE
:105A4000000823072BD5702A07D0DDF820C08CF082
:105A5000100C5CEA0B0C05D00EE040238DF82430CE
:105A6000012308E050EA010306D030238DF82430EA
:105A70008DF8252002239846DDF820C08CF0080C14
:105A80005CEA0B0C0BD150EA010301D1630706D588
:105A900030238DF824304FF00108A9F10109582A6C
:105AA00004D038A20B9208AA0A920BE03AA2F9E7B6
:105AB0005B46089AFFF746FD0B9B9B5C0A9A521EB9
:105AC0000A92137050EA0102F2D10A98ADEB00007D
:105AD00000F1200B600702D524F4803401E04FF080
