:020000040800F2
:10000000305C00205D090008350300083703000854
:10001000390300083B0300083D030008000000000E
:100020000000000000000000000000004501000882
:100030003F0300080000000089010008850800084F
:100040007709000877090008770900087709000890
:100050007709000877090008770900087709000880
:100060007709000877090008770900087709000870
:100070007709000877090008770900087709000860
:100080007709000877090008770900087709000850
:100090007709000877090008770900087709000840
:1000A0007709000877090008770900087709000830
:1000B0007709000877090008770900087709000820
:1000C0007709000877090008770900087709000810
:1000D000770900082D070008F707000877090008CE
:1000E00077090008770900087709000877090008F0
:1000F00077090008770900087709000877090008E0
:1001000077090008770900087709000877090008CF
:1001100077090008770900087709000877090008BF
:1001200077090008770900087709000877090008AF
:10013000DFF80CD004F0AAF800480047830200085A
:10014000305C0020224B19680868B0E8F00F80F39B
:100150000988BFF36F8F4FF0000080F311884EF0D5
:100160000D0E70470000000006480068006880F32C
:10017000088862B661B6BFF34F8FBFF36F8F00DFA1
:1001800000BF00BF08ED00E0EFF30980BFF36F8F01
:100190000F4B1A6820E9F00F106008B54FF05000BF
:1001A00080F31188BFF34F8FBFF36F8F02F0EAF82F
:1001B0004FF0000080F31188BDE808401968086816
:1001C000B0E8F00F80F30988BFF36F8F704700BF6E
:1001D0004C000020EFF30580704700003F4D404E7B
:1001E0004FF47A77286880688047040007D0227926
:1001F0003046216800F03BFA204603F0BCFE38464A
:1002000001F0F4FFEEE703F0DDFE0A2001F0EEFF5F
:10021000F9E74FF47A7403F0BFFF204601F0E6FFE0
:10022000F9E71CB503F062FA02202E4900234402CC
:10023000CDE9000122462CA1AFF2290001F014FE05
:1002400028490320091DCDE900010023224629A1E8
:10025000AFF24D0001F008FE2249042008310023CE
:10026000CDE90001802226A1AFF28F0001F0FCFD54
:100270001C48001F006801F022FEBDE81C4003F08E
:100280004FBA1CB54FF4407000F07AFB00F004FB4D
:1002900000F094F94FF4E13000F060FA00F0FCF85F
:1002A00003F067FD03F063FF03F07AFE17A003F08D
:1002B000FFFF19A11B4800F0F1F90A490120091FAD
:1002C0000023CDE90001802217A1AFF2A90001F0BF
:1002D000CBFD02F06FF900201CBD0000C80000201B
:1002E00000380140040000207461736B315F746159
:1002F000736B00007461736B325F7461736B000029
:100300006170705F7461736B00000000CFB5CDB396
:10031000C6F4B6AF000000004C6F5261B3F5CABC22
:10032000BBAF00000044004073746172745F74617D
:10033000736B00007047FEE7FEE7FEE7FEE77047DD
:100340000CB500224C4800920192016841F48031C2
:1003500001604FF4A063016801F40031019100993C
:10036000491C0091019911B900999942F3D1016892
:10037000890333D50121019140490A6842F01002F6
:100380000A600A6822F003020A600A6842F0020268
:100390000A604168416041684160416841F48061A0
:1003A0004160416821F47C114160416841F4E811E9
:1003B0004160016841F08071016001688901FCD5EC
:1003C000416821F003014160416841F00201416050
:1003D0004168C1F381010229FAD10CBD01920CBD23
:1003E000254810B5016841F0010101604168244AC7
:1003F000114041600168234A11400160016821F405
:1004000080210160416821F4FE0141604FF41F0129
:100410008160FFF795FF1C494FF00060086010BD38
:10042000154A10B55068194B10F00C01184803D04C
:10043000042901D0082901D0036012E051685368F3
:1004400001F470114FF0020413F4803F04EB91416A
:1004500002D053689B0301D50E4B00E00B4B594370
:10046000016051680A4AC1F30311121D515C026810
:10047000CA40026010BD000000100240002002408F
:100480000000FFF8FFFFF6FE08ED00E000127A0022
:100490001000002000093D004648002102220170A2
:1004A000427015228270C01C01700121417014211C
:1004B0008170704770B50D463F4E0446010A3046C4
:1004C00000F0CAF8E1B2304600F0C6F829463046DE
:1004D000BDE8704000F0C0B870B50C460546364E19
:1004E00011E02178012903D0042901D01B2903D16F
:1004F0001B21304600F0B0F82178304600F0ACF80F
:100500006D1EEDB2641C002DEBD170BD70B52A4D8F
:100510000446012803D0042C01D01B2C03D11B213D
:10052000284600F099F821462846BDE8704000F0C2
:1005300093B82DE9F04104003AD003F0ECFC2072AE
:100540001C481D4FC01C017845788678384600F05D
:1005500083F82946384600F07FF83146384600F0E7
:100560007BF80121384600F077F8A07CFFF7CEFF3A
:10057000607AFFF7CBFFA07AFFF7C8FFE07AFFF7BA
:10058000C5FF207BFFF7C2FF607BFFF7BFFFA07BAB
:10059000FFF7BCFF20792168FFF79EFF207AFFF765
:1005A000B5FF0421384600F057F80120BDE8F0817E
:1005B0000020FBE7240000200044004010B586B076
:1005C0000121042000F073FC0121880300F06FFC7E
:1005D0004FF40070ADF8100018208DF813000320C0
:1005E0005C4C8DF8120004A9204600F078FA211521
:1005F000ADF8101004218DF8131004A9204600F066
:100600006EFA4FF4E13000900020ADF80400ADF830
:100610000600ADF80800ADF80C000C204E4CADF80B
:100620000A006946204600F0C1FC25218DF814100F
:1006300001218DF815108DF8171005A800F0A5F907
:10064000012240F22551204600F02DFD01212046D7
:1006500000F01FFD06B010BD10B5044600F06FFDA0
:100660008021204600F0CCFD0028F9D010BD2DE9F6
:10067000F04115460E460746002405E0315D384638
:10068000FFF7EAFF641CE4B2AC42F7D340213846DE
:1006900000F0B6FD0028F9D0BDE8F08170B50D4638
:1006A000064600243046295DFFF7D6FF641C285D0E
:1006B0000028F7D14021304600F0A2FD0028F9D0F3
:1006C00070BD70B50446080ACDB20146204600F060
:1006D00036FD8021204600F093FD0028F9D0294600
:1006E000204600F02CFD8021204600F089FD0028E6
:1006F000F9D070BD70B5184D0446C1B2284600F05F
:100700001EFD8021284600F07BFD0028F9D0204600
:1007100070BD10B5104C2021204600F071FD00285E
:10072000F9D02046BDE8104000F00DBD10B50A4CD0
:1007300040F22551204600F06DFD002808D02046EB
:1007400000F001FDC1B22046BDE8104000F0F7BC4A
:1007500010BD0000000801400038014070B504469B
:1007600086B00121042000F0A2FB0121480400F022
:10077000A7FB0425ADF8105018208DF813000320B6
:100780003C4E8DF8120004A9304600F0A8F908206C
:10079000ADF810008DF8135004A9304600F09FF911
:1007A00000940024ADF808400C20334DADF804400F
:1007B000ADF80A00ADF80640ADF80C406946284691
:1007C00000F0F4FB26208DF8140001218DF817109D
:1007D0008DF815108DF8164005A800F0D6F8012206
:1007E00040F22551284600F05EFC0121284600F029
:1007F00050FC06B070BD70B51F4C40F2255120462C
:1008000000F008FD002811D0204600F09CFC1B4A97
:10081000C0B21B4BD0705178002441B19578294269
:1008200004D091885854491C9180547070BD9178BF
:10083000012579B1042806D01B280BD09188585483
:10084000491C918070BD91885854491C9180157045
:10085000947070BD14780CB9012805D00029F8D027
:100860001B28F6D1557070BD91885854491C918051
:10087000957070BD00080140004400402C0000202D
:10088000E400002010B502F0D9F8012803D0BDE83B
:10089000104002F056BF10BD10B5042000F0B5F8AE
:1008A0002B482C492C4A0068B0FBF1F3B0FBF1F166
:1008B0004FF47A7041431370012050804FF0E020D4
:1008C000026942F0020202614161016941F00101E5
:1008D000016110BD70B54FF0E02500216C691E4A22
:1008E000AB6912785043AA699A42FCD002D2A3EBBA
:1008F000020302E0A4EB020633441944134681428A
:10090000F1D370BD70B5044602F098F801280CD000
:10091000114D6888844203D3B4FBF0F001F066FC0B
:100920006888B4FBF0F100FB11444FF47A70604327
:10093000BDE87040CEE770B5054600244FF47A76E6
:1009400003E03046FFF7C6FF641CAC42F9D370BD2C
:100950001000002040420F0032000020064880476F
:1009600006480047FEE7FEE7FEE7FEE7FEE7FEE794
:10097000FEE7FEE7FEE7FEE7E103000831010008BD
:100980002849084328490860704730B50F23C278CA
:1009900001780125F2B1244A126801F1E02102F444
:1009A000E062C2F5E062120AC2F10404D340427868
:1009B000A24084781C401443220181F8002400786E
:1009C00000F01F018D404009800000F1E020C0F8D8
:1009D000005130BD01F01F0085404809800000F142
:1009E000E020C0F8805130BD104A114001430E484C
:1009F000001F016070470C4A121D0029116801D0C8
:100A0000014300E08143116070474FF0E02104286A
:100A1000086903D020F004000861704740F004002A
:100A2000FAE700000000FA050CED00E080FFFF1F70
:100A30008F4910B5884206D10121042000F049FAFF
:100A4000002104203BE08B49884206D10121082087
:100A500000F03FFA0021082031E08749884206D1A2
:100A60000121102000F035FA0021102027E08349F1
:100A7000884206D10121202000F02BFA00212020FD
:100A80001DE07F49884206D10121402000F021FA73
:100A90000021402013E07B49884206D101218020BB
:100AA00000F017FA0021802009E0774988420AD136
:100AB00084150121204600F00CFA00212046BDE8F3
:100AC000104000F006BA10BD10B50121084600F034
:100AD00000FA0021BDE81040012000F0FAB9F0B59D
:100AE000CC78002204F00F03E40601D58C78234370
:100AF0000C784FF00F0C14F0FF0F4FF0010E1BD0CD
:100B000005680E880EFA02F42640A64210D196001F
:100B10000CFA06F725EA070703FA06F5CE783D43F7
:100B2000282E02D0482E02D002E0446100E0046189
:100B3000521C082AE5D305600A88FF2A1CD944689C
:100B4000002202F108060EFA06F50E882E40AE428B
:100B50000ED196000CFA06F7BC4303FA06F7CE78DE
:100B60003C43282E00D14561CE78482E00D1056146
:100B7000521C082AE5D34460F0BD4FF6FF71018096
:100B8000022181700421C1707047024600209268E2
:100B90000A4200D001207047806880B27047024648
:100BA0000020D2680A4200D001207047C06880B29D
:100BB000704701617047416170470AB10161704738
:100BC00041617047C160704741F480328261816148
:100BD00082618169806970472C4B10B51A684FF6A5
:100BE0008074224042EA00100843186010BD284972
:100BF000C8617047F0B5254C002801DAE36900E0D0
:100C00006368450D2E0185B2C0F30157B540C0F3AE
:100C10000342032F05D0C6020AD503269640B343EC
:100C200007E023F07062636823F07063636002E0A2
:100C3000AB4343F0706201B12A43002801DAE2615C
:100C4000F0BD6260F0BD10B58A0721F003040F49C2
:100C5000120F21440F238C6893409C438C608B6857
:100C6000904003438B6010BD0949C1F8DC00704718
:100C700000080140000C0140001001400014014038
:100C800000180140001C014000200140000001400C
:100C900000002042A548016841F00101016041685F
:100CA000A34A114041600168A24A114001600168F5
:100CB00021F480210160416821F4FE0141604FF47C
:100CC0001F018160704799490A6822F480320A60E6
:100CD0000A6822F480220A60B0F5803F07D0B0F5A0
:100CE000802F03D1086840F4A0200860704708688E
:100CF00040F48030F9E70346002059098B4A012966
:100D00000AD002290AD0516A03F01F02012393403E
:100D10000B4200D0012070471168F5E7116AF3E734
:100D200018B500204FF4A06400903120FFF7E3FFD6
:100D30000099491C0091A14201D00028F5D0312032
:100D4000FFF7D9FF002800D0012018BD774A1168AD
:100D500021F0F80141EAC000106070477649086050
:100D60007047724B5A68084322F47C121043586053
:100D700070477149086670476C4A516821F0030159
:100D80000143516070476948406800F00C007047AB
:100D9000664A516821F0F001014351607047634A8F
:100DA000516821F4E0610143516070475F4A516826
:100DB00021F4605141EAC000506070475B4A00294D
:100DC000517A01D0014300E08143517270475A4982
:100DD000C1F8D8007047554A516821F44041014399
:100DE000516070475149002281F8202081F820206D
:100DF000012802D0042802D1052081F82000704784
:100E00004E490860704749490A6A02430A627047BE
:100E10004A4944390860704730B5444A5168484BE4
:100E200011F00C0103D0042901D0082901D003607E
:100E300012E05168536801F470114FF0020413F48A
:100E4000803F04EB914102D053689B0301D53D4B99
:100E500000E03B4B5943016051680F2303EA111135
:100E6000394B5C5C0168E14041605468072505EA44
:100E700014241C5D21FA04F48460546805EAD42427
:100E80001B5DD940C1605268032303EA92322E4BA6
:100E90001B1F9A5CB1FBF2F1016130BD234A0029AE
:100EA000516901D0014300E08143516170471F4AFD
:100EB0000029916901D0014300E0814391617047AD
:100EC0001A4A0029D16901D0014300E08143D16170
:100ED0007047164A0029D16801D0014300E08143E0
:100EE000D1607047114A0029116901D0014300E027
:100EF00081431161704711494039086070470E49BC
:100F0000C86470470949C87170470848416A41F090
:100F1000807141627047054A0146002092680A428A
:100F200000D00120704701498872704700100240CC
:100F30000000FFF8FFFFF6FE00004242800442423C
:100F400000127A0000093D003A000020C44910B5A3
:100F500088420AD101218C032046FFF7BAFF2046C0
:100F6000BDE810400021FFF7B4BFBE49884202D15E
:100F700001214C0410E0BC49884202D101218C04BB
:100F80000AE0BA49884202D10121CC0404E0B84900
:100F900088420AD101210C052046FFF7A3FF204615
:100FA000BDE810400021FFF79DBF10BD30B50446DD
:100FB000008A85B00D464CF6FF710840E988014370
:100FC0002182A0894EF6F3110840A9882A8911438D
:100FD0006A8902431143A181A08A4FF6FF4108406C
:100FE000A9890143A1826846FFF716FF9C48844205
:100FF00001D1039800E00298A189090400EBC00127
:1010000001EB0010296801D5490000E08900B0FB20
:10101000F1F06422B0FBF2F109010B096FF0180541
:101020006B4300EB8300A3891D044FF0320306D508
:1010300003EBC000B0FBF2F000F0070005E003EBAB
:101040000010B0FBF2F000F00F000843208105B063
:1010500030BD4FF41651016000218180C1800181B3
:101060000C2242818181704710B5028A4FF2FF0342
:101070001A400B884C8823438C88C9880C4323432F
:101080001343038210BD0021018041808180C18013
:1010900070470029818902D041F4005101E021F418
:1010A00000518181704710B5C1F3421301F01F0454
:1010B0000121A140012B07D0022B07D01430002AB8
:1010C000026805D00A4304E00C30F8E71030F6E778
:1010D0008A43026010BD002A828A01D00A4300E0E0
:1010E0008A4382827047028A22F00F020282028AB9
:1010F0000A4302827047828922F4006282818289D7
:101100000A43828170470029818902D041F002019F
:1011100001E021F0020181817047028A22F0200261
:101120000282028A0A43028270470029018A02D0A1
:1011300041F4804101E021F4804101827047C1F314
:101140000801818070478088C0F30800704781895A
:1011500041F0010181817047028BD2B20283028B80
:1011600042EA012101837047028B02F47F4202832D
:10117000028B0A43028370470029818A02D041F022
:10118000200101E021F02001818270470029818A3D
:1011900002D041F0100101E021F01001818270477E
:1011A0000029818A02D041F0080101E021F0080104
:1011B000818270470029818902D041F4004101E019
:1011C000C1F30E01818170470029818A02D041F468
:1011D000006101E021F4006181827047828A22F07F
:1011E00004028282828A0A43828270470029818AAD
:1011F00002D041F0020101E021F00201818270473A
:101200000246002012880A4200D001207047C943DC
:101210000180704770B501F01F0501260024C1F35D
:10122000421306FA05F2012B0FD0022B0FD0838A4E
:101230004FEA11210088134206FA01F600EA06007F
:1012400001D000B10124204670BD8389F0E7038AF4
:10125000EEE70A0A01219140C9430180704700006E
:10126000003801400044004000480040004C00406D
:101270000050004000F108014FF0FF32C0E90112B8
:10128000C160016100210160704700210161704768
:1012900042684A6093688B60936859609160086106
:1012A0000168491C0160704730B50C68621C02D0AF
:1012B00000F1080202E0026904E01A4653681D6862
:1012C000A542FAD953684B6099608A605160086101
:1012D0000168491C016030BDD0E9013201699A60A2
:1012E000D0E901235A604A68824201D182684A608B
:1012F000002202610868401E0860704770B50D4604
:10130000040005D140F21B12F2A1F7A002F0D0FFB9
:1013100002F0ECF9D4E90F20216802FB00116160B2
:101320000021A1632168A1600A46D4E90F01401E93
:1013300000FB0121E16021464FF0FF3001F8440F2E
:10134000487004F110004DB1FFF794FF04F1240040
:10135000FFF790FF02F0E4F9012070BD2169002938
:10136000F8D001F0A3FA0028F4D0E3494FF0805000
:101370000860BFF34F8FBFF36F8FEBE72DE9F041AC
:1013800017460E46050005D14FF4C472D1A1D6A070
:1013900002F08EFFBEB105FB06F0543002F056FAA3
:1013A00004000ED004F154007EB12060C4E90F5651
:1013B00020460121FFF7A2FF84F85070002120464B
:1013C000A164BDE8F0810020E7E72460EEE72DE9A5
:1013D000F041856B174604460026026C82B1C7B106
:1013E000E06802F009FFE168206C091AE1602268F8
:1013F000914202D26168081AE060022F16D017E00D
:101400002068A8B9606801F062FB064600206060B1
:101410000EE0A06802F0F0FE216CA0680844A06015
:101420006168884204D32068A06001E005B16D1EA8
:101430006D1CA5633046C4E72DE9F3410F460098C3
:101440000026846C2CB940F6CE12A2A1A6A002F010
:101450002FFFA06BE16B884205D340F6CF129DA110
:10146000A1A002F025FFA06BE16B88420CD294F999
:1014700045503A4669462046FFF7A9FF0646681CD4
:1014800005D06D1C84F845503046BDE8FC81606A8B
:101490000028F9D004F1240001F008FA0028F3D064
:1014A0000126F1E72DE9F041044602F01FF994F915
:1014B000455004F1240610E0A06C20B10021204624
:1014C000FFF7BAFF04E0606A48B1304601F0EEF978
:1014D00008B101F0A4FA6D1E6DB2002DECDC4FF0E6
:1014E000FF3684F8456002F01BF902F0FFF894F92A
:1014F000445004F1100709E0206948B1384601F072
:10150000D5F908B101F08BFA6D1E6DB2002DF3DC38
:1015100084F84460BDE8F04102F002B92DE9FF4FC4
:1015200083B099468B4604004FF0000605D140F287
:10153000D92268A16CA002F0BBFEBBF1000F07D15D
:10154000206C28B140F2DA2262A167A002F0B0FE5E
:10155000B9F1020F08D1E06B012805D040F2DB227F
:101560005CA161A002F0A4FE01F068FA38B9059808
:1015700028B140F2DE2257A15BA002F099FE4FF0A5
:10158000000A4FF08057DFF8708102F0AFF8A06BCF
:10159000E16B884206D3B9F1020F03D0059800B37E
:1015A00016B325E04A4659462046FFF710FFA16CC6
:1015B00021B149462046FFF73FFF05E0616A19B1B6
:1015C00004F1240001F072F928B1C8F80070BFF3EB
:1015D0004F8FBFF36F8F02F0A3F8012007B0BDE873
:1015E000F08F02F09DF821E0684601F0CEF9012667
:1015F00002F096F800F09BFD02F078F894F94400B0
:10160000401C01D184F844A094F94500401C01D14C
:1016100084F845A002F084F805A9684601F0C6F9EF
:1016200030B12046FFF73EFF00F0F3FC0020D5E785
:1016300002F05CF8A06BE16B884201D1012500E06B
:10164000002502F06DF895B104F11000059901F044
:10165000D4F82046FFF726FF00F0DBFC002894D1E9
:10166000C8F80070BFF34F8FBFF36F8F8DE7204630
:10167000FFF718FF00F0CDFC87E710B50246002108
:101680000120FFF77BFE040007D0002141600160CC
:101690000B460A46C160FFF741FF204610BD10B55A
:1016A000040005D140F241220AA10FA002F000FE81
:1016B00001F0C1F96168884220D1E068401EE06015
:1016C00005D100231A4619462046FFF727FF0120BF
:1016D00010BD00002E2E5C4672656552544F535C5F
:1016E00071756575652E63004572726F723A257368
:1016F0002C25640D0A00000004ED00E00020E7E75F
:1017000030B4026C0B46002A0BD0C1681144C16092
:101710004468A14201D30168C16030BC184602F0A0
:101720006BBD30BC70472DE9FF4F83B09B468A46A6
:1017300004004FF0000607D140F2DC42AFF26C012A
:10174000AFF25C0002F0B4FDBAF1000F09D1206CD9
:1017500038B140F2DD42AFF28401AFF2740002F022
:10176000A7FD01F06BF948B9059838B14FF49C62B8
:10177000AFF2A001AFF2900002F09AFD4FF0000925
:101780004FF08057DFF8188601F0B0FFA56B35B336
:1017900051462046E668FFF7B3FFBBF1000F11D0BA
:1017A000E660606A50B104F1240001F07FF828B1CE
:1017B000C8F80070BFF34F8FBFF36F8F01F0B0FF19
:1017C00001200BE76D1EA563206810B901F02FFA08
:1017D000606020690028F1D004F11000E5E7059869
:1017E00008B11EB106E001F09BFF27E0684601F05A
:1017F000CCF8012601F094FF00F099FC01F076FF8F
:1018000094F94400401C01D184F8449094F94500B7
:10181000401C01D184F8459001F082FF05A968467B
:1018200001F0C4F8002820460AD0FFF73BFE00F084
:10183000F0FB204600F0A6FA0028A5D00020CDE657
:1018400000F0A0FAD8B1206830B901F04FFF60680D
:1018500001F0FFF801F064FF04F12400059900F0A5
:10186000CCFF2046FFF71EFE00F0D3FB00288BD1F3
:10187000C8F80070BFF34F8FBFF36F8F84E7204627
:10188000FFF710FE00F0C5FB7EE770B50D460400C3
:1018900007D14FF41E72AFF2C411AFF2B41002F0D0
:1018A00007FD01F0C8F86168884204D1E068401C77
:1018B000E060012070BD00232A4619462046FFF74C
:1018C00032FF0028F6D0E168491CE16070BD70B5B8
:1018D0000C46050007D140F2BD22AFF20821AFF25D
:1018E000F81002F0E5FCAC4207D940F2BE22AFF29C
:1018F0001C21AFF20C2002F0DBFC02220021284662
:10190000FFF73CFD002800D0846370BD2DE9F0474F
:10191000984615468946040007D140F29F32AFF23F
:101920004C21AFF23C2002F0C3FCB9F1000F09D109
:10193000206C38B14FF46872AFF26821AFF25820D2
:1019400002F0B6FCB8F1020F0AD1E06B012807D013
:1019500040F2A132AFF28421AFF2742002F0A8FC71
:1019600001F003FF5020EFF3118780F31188BFF3DC
:101970004F8FBFF36F8FA06BE16B884207D3B8F135
:10198000020F04D0002087F31188BDE8F08794F996
:101990004560424649462046FFF719FD701C04D0B9
:1019A000761C84F845600120EDE7A06C012620B18B
:1019B00041462046FFF740FD06E0606A0028F2D06D
:1019C00004F1240000F072FF0028ECD0002DEAD0D2
:1019D0002E60E8E72DE9F0410D46040007D140F202
:1019E0003C42AFF21031AFF2003002F061FC206CEB
:1019F00038B14FF48862AFF22431AFF2143002F004
:101A000057FC206848B9606838B140F24542AFF2EF
:101A10003C31AFF22C3002F04BFC01F0A6FE50201E
:101A2000EFF3118680F31188BFF34F8FBFF36F8FF1
:101A3000A16BE06B88421FD994F94500491CA16352
:101A4000411C04D0401C84F84500012015E0A06C26
:101A5000012720B100212046FFF7EEFC06E0606A76
:101A60000028F2D004F1240000F020FF0028ECD080
:101A7000002DEAD02F60E8E7002086F31188A0E46B
:101A80002DE9F04790468946040007D14FF4B4622F
:101A9000AFF2C031AFF2B03002F00AFCB9F1000F82
:101AA00009D1206C38B140F2A152AFF2D831AFF277
:101AB000C83002F0FDFB01F058FE5020EFF3118713
:101AC00080F31188BFF34F8FBFF36F8FA66BF6B112
:101AD00094F9445049462046FFF712FE761EA6634D
:101AE000681C04D06D1C84F84450012010E020696B
:101AF0000028FAD004F1100000F0D8FE0028F4D03D
:101B0000B8F1000FF1D00121C8F80010EDE7002076
:101B100087F3118839E72DE9F0410E46040007D11B
:101B200040F2FC52AFF25441AFF2444002F0C0FB2D
:101B30004EB9206C48B140F2FD52AFF26841AFF2AD
:101B4000584002F0B5FB206C38B940F2FE52AFF2BB
:101B50007C41AFF26C4002F0ABFB01F006FE50207E
:101B6000EFF3118580F31188BFF34F8FBFF36F8FB1
:101B7000A06B30B131462046E768FFF7C1FD012078
:101B8000E76085F311881CE410B5040007D140F22A
:101B90002F62AFF2C041AFF2B04002F089FB01F01A
:101BA000A5FDA46B01F0BCFD204691E510B5040035
:101BB00007D140F24162AFF2E441AFF2D44002F00B
:101BC00077FB01F093FDD4E90E10441A01F0A8FD53
:101BD00020467DE510B5040007D140F25162AFF216
:101BE0000C51AFF2FC4002F063FBA06B70E56D4A54
:101BF000002102EBC1035B68834206D1002042F85A
:101C0000310002EBC10148607047491C0829F0D33C
:101C1000704710B5040007D140F25D62AFF24C513D
:101C2000AFF23C5002F044FB2046FFF7E0FF2046B5
:101C3000BDE8104001F075BEC06C7047C1647047CC
:101C400090F85000704710B5040007D140F293722D
:101C5000AFF28051AFF2705002F02AFBA06B08B1D6
:101C6000002035E5012033E510B5040007D140F22E
:101C7000BA72AFF2A051AFF2905002F019FBA06B14
:101C8000E16B884201D1012022E5002020E510B55A
:101C9000444B002253F832401CB1521C082AF9D39D
:101CA00016E543F8321003EBC201486010E510B5A9
:101CB00000243C4A214602EBC1035B68834202D107
:101CC00052F8314002E0491C0829F4D32046FFE4D1
:101CD00070B515460E46044601F008FD94F944100F
:101CE0000020491C01D184F8440094F94510491C96
:101CF00001D184F8450001F013FDA06B28B92A46F4
:101D0000314604F1240000F0B6FD2046BDE87040E5
:101D1000FFF7C8BB00220421FFF730BB70B50D46AA
:101D2000044601F0E3FCA06C08B9A06B08B10024E4
:101D300001E0A564012401F0F3FC204670BD10B55C
:101D40000446806C884201D1A06B08B10020BFE43A
:101D500001F0CCFC0020A06401F0E2FC0120B7E41B
:101D600008B500230A4669460093FFF7DCFC00989B
:101D700008BD08B500210A4600916946FFF780FEBC
:101D8000009808BD10B5044601F0B0FCA06B20B16E
:101D9000002401F0C5FC20469AE40124F9E7000084
:101DA00004ED00E0E40100202DE9F041054601F0DA
:101DB0009DFCFE4EB068401CB0603068FC4F10B116
:101DC000706930B32BE03560B068012827D100245A
:101DD00004EB840007EB8000FFF74CFA641C202C16
:101DE000F6D3F448FFF746FAF2481430FFF742FA08
:101DF000F0482830FFF73EFAEE483C30FFF73AFA59
:101E0000EC485030FFF736FAEA4870631430B0639C
:101E100005E03068E96AC06A884200D83560706AB7
:101E20000121401C70626864E86A32698140114394
:101E3000316100EB800007EB8000291DFFF728FAD5
:101E400001F06EFC706900280CD03068E96AC06A45
:101E5000884207D2D8494FF080500860BFF34F8FB7
:101E6000BFF36F8FBDE8F0812DE9FF5F8346DDE9A9
:101E70000E87994616468A46900001F0E7FC050059
:101E80001AD05C2001F0E2FC040012D0256300218E
:101E9000CDE90241CDE900874B46324651465846CE
:101EA00001F087F82046FFF77FFF012004B0BDE86E
:101EB000F09F284601F035FD4FF0FF30F6E770B592
:101EC000044601F013FCB94D04B92C68201DFFF73E
:101ED00003FA58B9E06AB64A00EB800152F82110C3
:101EE00021B901218140286988432861A06A18B17D
:101EF00004F11800FFF7F0F9686A401C686228686E
:101F0000844208D1AB48211D3C30FFF7C1F9686815
:101F1000401C686007E0A868401EA860204601F0E9
:101F2000A1F801F092F801F0FBFB6869002812D0DB
:101F3000286884420FD1286B28B140F265429FA1E6
:101F4000A3A002F0B5F99C494FF080500860BFF3A0
:101F50004F8FBFF36F8F70BD2DE9F041934F002677
:101F6000386B38B1B869401CB861F86900B1012616
:101F7000304677E7FD686D1CFD6011D1786B006815
:101F800028B140F6D9128DA191A002F091F9786B99
:101F9000B96B7963B863386A401C386201F055F850
:101FA000B86ADFF80C82854209D3786B006880B18B
:101FB000786BC068C468606885420DD2B8623868C2
:101FC000C06A00EB800158F821000128CDD9012614
:101FD000CBE74FF0FF30F1E7201DFFF77DF9A06A56
:101FE00018B104F11800FFF777F9E06A01213A69A6
:101FF00081401143396100EB800108EB8100211D14
:10200000FFF746F9E06A3968C96A8842CDD30126EC
:10201000CBE72DE9F047654D00242746286B28B90A
:102020004FF4FD6265A16AA002F042F901F05EFB87
:10203000286B401E2863286BF0BBA8685D492831D7
:102040000126C8B3DFF868918846D8F80010E9B1D6
:10205000D8F80C00C46804F11800FFF73DF9201D02
:10206000FFF73AF9E06A2A6906FA00F1114329619B
:1020700000EB800109EB8100211DFFF709F9E06AFF
:102080002968C96A8842E0D3EE61DEE70CB100F04E
:10209000DCFFAC693CB1FFF75FFF00B1EE61641E8D
:1020A000F9D10020A861E86930B143490127380718
:1020B0000860BFF34F8F00E001E0BFF36F8F01F0C6
:1020C0002FFB3846BDE8F0872DE9F041374E0F462B
:1020D0000446F5683068001DFFF7FEF838B930682F
:1020E00090F82C1001208840316981433161601CD7
:1020F00008D13FB13168BDE8F0412E485030091D8C
:10210000FFF7C6B830682C44AC424460316805D251
:10211000B06BBDE8F041091DFFF7C6B8706B091D33
:10212000FFF7C2F8B06A844200D2B4629AE61F4850
:10213000016B491C016370472DE9F0410E46050013
:102140004FF0000405D140F279421CA120A002F01A
:10215000AFF82EB940F27A4218A11DA002F0A8F8FB
:10216000124F386B28B140F27B4214A118A002F044
:102170009FF8FFF7DCFFFA6828688119904202D9BE
:10218000884202D804E0884201D8914200D9012453
:1021900029601CB1881A0021FFF796FFFFF739FF6D
:1021A000002822D14FF08050034919E04C00002054
:1021B00024020020A404002004ED00E02E2E5C4642
:1021C00072656552544F535C7461736B732E630078
:1021D0004572726F723A25732C25640D0A00000057
:1021E0000860BFF34F8FBFF36F8F3BE610B504005D
:1021F00014D0FE49096B39B140F2CF42AFF244012D
:10220000AFF2340002F054F8FFF791FF00212046AE
:10221000FFF75AFFFFF7FDFE002807D1F4494FF002
:1022200080500860BFF34F8FBFF36F8F10BD70B544
:10223000050007D140F2FB42AFF28001AFF270001F
:1022400002F036F8E94E3068854201D1002070BDB9
:1022500001F04CFA6C6901F063FA706B844202D0B1
:10226000B06B844201D1022070BDE248844204D1A7
:10227000A86A0028F7D1032070BDDE4814388442D4
:1022800002D00CB1012070BD042070BD10B5044611
:1022900001F02CFA0CB9D5480468E46A01F040FA60
:1022A000204610BD10B5044601F05FFA5020EFF350
:1022B000118180F31188BFF34F8FBFF36F8F0CB97B
:1022C000CA480468E06A81F3118810BD2DE9F04125
:1022D00000260D460446202908D34FF4B062AFF221
:1022E0002411AFF2141001F0E3FF1F2501F0FEF9F5
:1022F000BE4F04B93C68E06CA8423FD039688542C3
:1023000006D98C4207D03968C96AA94202D902E0CD
:102310008C4200D10126E16A8846884200D1E562FC
:10232000E564A069002802DBC5F12000A061B24D80
:1023300008EB8800616905EB8000814215D1201D02
:10234000FEF7CAFF012120B93A6901FA08F0824379
:102350003A61E06A3A6981401143396100EB8000DB
:1023600005EB8000211DFEF793FF3EB1A0494FF021
:1023700080500860BFF34F8FBFF36F8FBDE8F0410F
:1023800001F0CEB970B5994D286B10B10120E8610C
:1023900070BD0020E8612869974EB0FA80F0C0F166
:1023A0001F0000EB800456F8240038B940F6F622EE
:1023B000AFF2F811AFF2E81001F07AFF06EB8400FB
:1023C00000F10802416849684160914201D14968C1
:1023D0004160C868286070BD70B5044601F086F998
:1023E000824D04B92C68201DFEF776FF58B9E06ACB
:1023F000814A00EB800152F8211021B9012181406E
:10240000286988432861A06A18B104F11800FEF712
:1024100063FF211D7748FEF73BFF01F081F96869F2
:1024200028B101F063F900F010FE01F079F9286895
:10243000844213D1686990B1286B38B140F2576279
:10244000AFF28821AFF2782001F032FF68494FF0F7
:1024500080500860BFF34F8FBFF36F8F70BD65482A
:10246000A9680068884202D10020286070BDBDE8DC
:10247000704087E770B50025040007D140F2816203
:10248000AFF2C821AFF2B82001F012FF59496069DC
:10249000884205D1A06A2839884201D000B90125B7
:1024A000284670BD70B504002BD0504D286884427A
:1024B00031D001F01BF92046FFF7DCFFE8B1201D09
:1024C000FEF70AFFE06A01212A6981401143296170
:1024D000494900EB800001EB8000211DFEF7D8FE8A
:1024E000E06A2968C96A884207D341494FF08050A1
:1024F0000860BFF34F8FBFF36F8FBDE8704001F0EE
:102500000FB940F2AB62AFF24C31AFF23C30BDE8F4
:10251000704001F0CDBE70BD2DE9F04100260400F1
:1025200007D140F2E262AFF26C31AFF25C3001F001
:10253000BFFE01F01AF95020EFF3118580F31188E6
:10254000BFF34F8FBFF36F8F2046FFF793FFF0B1BC
:10255000264F386B20B1274804F11801283814E0C1
:10256000E06A3968C96A884200D30126201DFEF757
:10257000B3FEE06A01213A698140114339611E4985
:1025800000EB800001EB8000211DFEF781FE85F34A
:102590001188304666E4184E4FF08054144D00F018
:1025A0006BFD30680128FAD92C60BFF34F8FBFF361
:1025B0006F8FF4E71CB50D4800242C30CDE90040A6
:1025C000234682220DA10F48FFF74EFC012803D1BC
:1025D00000F06DFE01281BD0401C2BD140F284720C
:1025E000AFF22841AFF2184002B00DE04C000020DD
:1025F00004ED00E0F40400202402002049444C458E
:102600000000000097250008BDE8104001F050BE12
:10261000502080F31188BFF34F8FBFF36F8FFA48BC
:102620004FF0FF31816201214161C460BDE81C406F
:1026300001F01AB81CBD502080F31188BFF34F8FF2
:10264000BFF36F8FF0490020486101F043B8EE48B6
:10265000C068704710B501F088F8EB48C06810BD3D
:10266000E9488068704710B510B104461CB10AE013
:10267000E5480468FAE740F68C02AFF2C041AFF2D9
:10268000B04001F015FE04F1340010BD2DE9F04713
:102690001E4691460C4607000ED0054605F1340053
:1026A000C4E90050E86A2061286BE061686CA060B2
:1026B000207B032803D00AE0D3480568EEE7FFF744
:1026C00036FDA86A08B102202073FFF7A2FC4FF084
:1026D0000008E86CC4E90508052E01D0267303E064
:1026E0003846FFF7A4FD2073B9F1000F0AD000218E
:1026F000286B01E0401C491C0278A52AFAD0880802
:102700002084DFE4A4F82080DCE42DE9F047814652
:10271000086892460C460025F8B1486801F10806A1
:1027200040684860B04201D140684860D0F80C80F1
:10273000606842686260B24201D15168616060685D
:1027400005EBC50109EB8101C768534601223846F4
:10275000FFF79CFF6D1C4745EAD12846B2E42DE9FE
:10276000F04717460A46064600242025FFF7DFFCFF
:10277000DFF89482D8F8080082423AD3DFF88C92CE
:102780006D1E05EB850104EBC40009EB810106EB2E
:1027900080000122FFF7B9FF0444002DF0D104EBC3
:1027A000C40006EB800002224546D8F83410FFF73B
:1027B000ACFF044404EBC40006EB80000222A96BCA
:1027C000FFF7A3FF044404EBC40006EB80000422DF
:1027D0008F49FFF79AFF04448D4904EBC40006EBD0
:1027E000800003221431FFF790FF04440FB1002052
:1027F0003860FFF70EFC204664E470B50D46040017
:1028000007D140F60632AFF24C61AFF23C6001F006
:102810004FFD7D48016820461831FEF745FD2846EA
:10282000BDE8704001214FE42DE9F04117460E4606
:10283000050007D140F61732AFF28061AFF2706049
:1028400001F036FD704C206B38B940F61B32AFF208
:102850009461AFF2846001F02BFD216846F00040E6
:102860008861216828461831FEF712FD3846BDE818
:10287000F041012128E470B514460E46050007D149
:1028800040F63132AFF2CC61AFF2BC6001F010FD26
:102890005D48016828461831FEF7FAFC0CB14FF08C
:1028A000FF3621463046BDE870400DE42DE9F04189
:1028B000C068C4683CB940F66132AFF20071AFF253
:1028C000F06001F0F5FC04F118000746FEF704FD86
:1028D0004D4D286B012660B14D4839461438FEF73E
:1028E000D7FCE06A2968C96A884212D90120EE61E2
:1028F0001CE4201DFEF7F0FCE06A2A6906FA00F1EC
:1029000011432961414900EB800001EB8000211D4A
:10291000E5E700200AE470B53B4D06460C46286BFF
:1029200038B940F69932AFF26C71AFF25C7001F0D9
:10293000BFFC44F000403060F4683CB940F6A1327E
:10294000AFF28871AFF2787001F0B2FC3046FEF75A
:10295000C3FC201DFEF7C0FCE06A01262A6906FAC6
:1029600000F111432961294900EB800001EB80004F
:10297000211DFEF78DFCE06A2968C96A884202D9E8
:102980000120EE6170BD002070BD10B5040007D1BC
:1029900040F6C132AFF2DC71AFF2CC7001F088FCCE
:1029A0001948016A2160C068606010BD70B50D46AD
:1029B000040007D140F6CB32AFF60001AFF2F07061
:1029C00001F076FC3DB940F6CC32AFF61001AFF61F
:1029D000000001F06DFC00F089FE0B4AD068296808
:1029E0004B1C0FD02368126A934202D06268824265
:1029F00010D96268801A88420CD2081A28602046D2
:102A0000FFF7C3FF002406E04C0000202402002052
:102A1000E0040020012400F083FE204670BDFF4941
:102A20000120C8617047002800D0806C70470028E2
:102A300000D081647047F94800687047F7484169E1
:102A400019B1006B18B100207047012070470220B7
:102A5000704770B5040039D0F04DE06A2968C96A42
:102A6000884233D2A069002804DB2868C06AC0F11C
:102A70002000A061E06AEA4E00EB8000616906EB8D
:102A8000800081421FD1201DFEF726FC012150B994
:102A9000E06A00EB800256F8222022B92A6901FA86
:102AA00000F082432A612868C06AE0622A69814096
:102AB0001143296100EB800006EB8000211DBDE879
:102AC0007040FEF7E5BB2868C06AE06270BD70B573
:102AD00004004FF0000640D0D04D2868844207D053
:102AE00040F6C762AFF62C11AFF61C1001F0E0FB08
:102AF000206D38B940F6C962AFF64011AFF630101C
:102B000001F0D6FB206D401E2065E26CE16A914227
:102B100023D010BB201DFEF7DFFBC149012250B9B5
:102B2000E06A00EB800351F8233023B92B6902FAE5
:102B300000F083432B61E06CE062C0F12000A061F3
:102B4000E06A2B6982401A432A6100EB800001EBA6
:102B50008000211DFEF79CFB0126304670BD2DE94B
:102B6000FF41002705460770AC48816802918068E4
:102B700000EBC000800000F069FE06004BD0002290
:102B80000299FFF7ECFDCDE9020738463AE000EB89
:102B9000C00006EB8001087B01280FD002280FD06F
:102BA00003280FD004280FD000244968284601F0DC
:102BB0004EFB284601F044FB202109E05224F4E7B3
:102BC0004224F2E75324F0E74424EEE72954401C62
:102BD0000F28FBD32F540544039800EBC00006EBED
:102BE00080008268018CCDE90012036922468DA124
:102BF000284601F06DFB284601F022FB05440398AE
:102C0000401C039002998842C1D304B03046BDE80D
:102C1000F04100F086BEBDE8FF81804908680A687F
:102C20008069D26A0968C2F120028A6170477B49D3
:102C3000086818B10868026D521C02650868704780
:102C400070B50C46064600F051FD744D2868406D85
:102C500080B92968012081F858005CB10121204623
:102C6000FFF732FA73494FF080500860BFF34F8F7F
:102C7000BFF36F8F00F054FD00F038FD2868446DFD
:102C8000002034B116B12968486502E02A68611E47
:102C90005165296881F8580000F042FD204670BD5A
:102CA0002DE9F0411E4615468846074600F01EFDF8
:102CB0005A4C206890F85800022814D02068416DC2
:102CC000B94341652168012081F858005EB10121B6
:102CD0003046FFF7F9F957494FF080500860BFF3CD
:102CE0004F8FBFF36F8F00F01BFD00F0FFFC15B19D
:102CF0002068406D2860206890F8580001280DD0A9
:102D00002068416D21EA0801416501252168002004
:102D100081F8580000F004FD28463BE40025F5E763
:102D20002DE9F0411F4690460D4604004FF0010684
:102D300007D141F2FD02AFF67C31AFF66C3001F005
:102D4000B7FA00F0D3FC0FB1606D386094F858000A
:102D5000022184F85810B8F1050F0ED2DFE808F010
:102D60000D03060C0A00616D294301E0616D491CE9
:102D7000616502E0022803D06565012802D02AE0DF
:102D8000002628E0201DFEF7A7FA244DE06A012165
:102D90002A69814011432961214900EB800001EB40
:102DA0008000211DFEF774FAA06A38B141F2351295
:102DB000AFF6F831AFF6E83001F07AFAE06A296848
:102DC000C96A884207D91B494FF080500860BFF399
:102DD0004F8FBFF36F8F00F0A3FC304688E52DE9DD
:102DE000F0471F46DDF8209092460D4604004FF054
:102DF000010807D141F26812AFF64041AFF630400A
:102E000001F056FA00F0B1FC5020EFF3118680F388
:102E10001188BFF34F8FBFF36F8F0DE04C00002080
:102E200024020020092563092575092575092575E2
:102E30000D0A000004ED00E00FB1606D386094F8F9
:102E40005800022184F85810BAF1050F0ED2DFE8BD
:102E50000AF00D03060C0A00616D294301E0616D63
:102E6000491C616502E0022803D06565012803D092
:102E700031E04FF000082EE0A06A38B141F2AF1205
:102E8000AFF6C841AFF6B84001F012FA8D4D286B8D
:102E9000012778B104F118018B48FEF7F9F9E06ACF
:102EA0002968C96A884216D9B9F1000F12D0C9F849
:102EB000007010E0201DFEF70FFAE06A2A6907FA99
:102EC00000F11143296100EB8001804800EB810093
:102ED000211DE2E7EF6186F31188404611E42DE9F8
:102EE000F0418846040007D141F2E312AFF63451B5
:102EF000AFF6245001F0DCF900F037FC5020EFF37E
:102F0000118780F31188BFF34F8FBFF36F8F94F851
:102F10005800022184F85810616D491C6165012830
:102F20002ED1A06A38B141F20922AFF67051AFF646
:102F3000605001F0BDF9634D286B012678B104F1B2
:102F400018016148FEF7A4F9E06A2968C96A884255
:102F500016D9B8F1000F12D0C8F8006010E0201D9B
:102F6000FEF7BAF9E06A2A6906FA00F1114329610D
:102F7000564900EB800001EB8000211DE2E7EE6185
:102F800087F31188B4E410B558B1044600F0AEFBE5
:102F900094F85800022807D0002400F0C1FB204616
:102FA00010BD48480468F1E7002084F85800012467
:102FB000F3E72DE9F0470E46DDE90984174682461E
:102FC00091009946089DA522206B01F027F96FF02A
:102FD0000301206B01EB8701084420F00707780705
:102FE00005D040F22B323AA13EA001F061F9002059
:102FF0002218315C82F83410315C11B1401C102869
:10300000F6D3002684F84360202D00D31F25E56207
:10301000C4E91356201DFEF738F904F11800FEF735
:1030200034F92461C5F120006462A061666584F80A
:1030300058604A465146384600F0F9FA2060B8F127
:10304000000F01D0C8F8004048E71E48416B0968EE
:1030500029B1416BC968C9684968816270474FF0FE
:10306000FF31FAE710B50446006B00F05AFC204629
:10307000BDE8104000F055BC70B5134E114D14362C
:103080001CE0FFF754F8306820B10024FEF7C1FFC0
:10309000A4B901E00124F9E700F028FBF068C46856
:1030A000201DFEF719F9A868401EA8606868401E38
:1030B000686000F035FB2046FFF7D4FF6868002801
:1030C000DFD170BD4C000020CC0400202402002081
:1030D0002E2E5C4672656552544F535C7461736B5F
:1030E000732E63004572726F723A25732C25640D3E
:1030F0000A00000070B500244160F74D0061914264
:1031000006D8D11A8269914206D2011D286907E0CA
:103110009A4203D2994201D3012403E0011DE868D9
:10312000FEF7C2F8204670BD2DE9FF479946DDF84D
:1031300030A090460D4606004FF0000705D14FF431
:10314000D372E6A1EBA001F0B3F8E34C206880B1A4
:10315000CDE900580296062D11DAFFF76FFC022820
:103160004FF0000309D0002269462068FEF7D6F927
:10317000074604B03846BDE8F0875246F4E700231E
:103180004A466946FEF7C2FBF2E770B586B0D24EFA
:1031900053E00198002806DADDE90301029A90471E
:1031A0000198002849DB039C606910B1201DFEF7DF
:1031B00093F805A800F04DF9054601980A283CD27D
:1031C000DFE800F00505053B273805053B27029899
:1031D000A169034601442A462046FFF78BFF0028D9
:1031E0002BD0616A20468847E069012825D100205C
:1031F00000900298A1690023421819462046FFF763
:1032000093FFD0B940F22132B4A1BAA001F050F836
:1032100013E00298A06128B94FF44E72AFA1B5A097
:1032200001F046F8A0692B4641191A462046FFF7DF
:1032300061FF02E0204600F074FB00231A4601A95A
:103240003068FEF770FA0028A3D106B070BDA24C1A
:10325000E068016839B1002139B1002000F00BF9B4
:10326000FFF793FFF4E70121F6E7C0680068F5E790
:1032700010B500F03BFA984C2068A0B9A148FDF7C2
:10328000F9FFA0481430FDF7F5FF9E48E0601430C8
:103290002061002210210520FEF770F8206010B197
:1032A00099A1FEF7F4FCBDE8104000F039BA1CB556
:1032B0000024FFF7DDFF8848006868B186491F20B9
:1032C000091DCDE9000100234FF4827290A19248BC
:1032D000FEF7CAFD040005D140F233127FA185A09C
:1032E00000F0E6FF20461CBD2DE9F0470746994651
:1032F00016460D462C20DDF820A000F0A7FA0400A9
:1033000014D0B8464F46D1462DB94FF4C67283A1AA
:1033100088A000F0CDFFFFF7ABFF04F11801C4F85F
:10332000008081E8E002201DFDF7AFFF204622E784
:1033300010B5694C606828B94FF4E87267A16DA0B8
:1033400000F0B6FF606810BD10B5040005D140F272
:10335000D91262A167A000F0ABFFA06910BD10B543
:10336000040005D140F2E3125CA162A000F0A0FFCE
:10337000606810BD10B5040005D140F2ED1257A1F0
:103380005CA000F095FF206810BD10B5040005D1C9
:1033900040F2DA3251A157A000F08AFF00F0A6F9FE
:1033A000606908B1012400E0002400F0B9F920466A
:1033B00010BD10B5040005D140F2EF3247A14DA079
:1033C00000F076FF00F092F9246A00F0A9F9204697
:1033D00010BD70B50D46040005D140F2FF323FA18B
:1033E00044A000F065FF00F081F92562BDE870405F
:1033F00000F096B97FB56FF0010401AE009486E845
:10340000070035481D4600232A4669460068FEF736
:103410007DFA04B070BD2DE9FF412F4C0746984658
:10342000206815460E4628B940F22B422BA131A048
:1034300000F03EFF4FF0FF30CDE90007CDE9026517
:103440000023424669462068FEF768F804B0BDE8EC
:10345000F08170B50546FFF7FAF81F4E0446B068D4
:10346000844203D200F070F8012000E000202860C0
:103470002046B46070BDF8B50D460646FEF757FE0F
:103480006846FFF7E6FF0446009810B1FEF7C1FD5D
:10349000F8BD1148ADB101690968D9B10025311BEA
:1034A0002A460068FEF714FCFEF7B3FD0028EFD1B2
:1034B00024494FF080500860BFF34F8FBFF36F8FE8
:1034C000F8BDA642EBD8FEF7A4FD2146304600F039
:1034D0006EF8F8BD0125E2E7880000202E2E5C463C
:1034E00072656552544F535C74696D6572732E63D7
:1034F000000000004572726F723A25732C25640D2E
:103500000A00000008050020546D72510000000000
:10351000546D7220537663004F3200082E2E5C46A5
:1035200072656552544F535C74696D6572732E6396
:10353000000000004572726F723A25732C25640DED
:103540000A00000004ED00E0F8B52F4E27E0C06847
:10355000C4680568201DFDF7BFFE616A20468847E4
:10356000E06901281BD1A0692844A84206D924613A
:103570006060211DF068FDF797FE10E00020034613
:10358000014600902A462046FFF7CEFD38B940F2AA
:103590009232AFF27801AFF2640000F089FEF06879
:1035A00001680029D3D13169C6E90310F8BDF8B527
:1035B000054615480E46C068C068C468201DFDF762
:1035C0008BFEE069012818D1A0692B4641193246CB
:1035D0002046FFF78FFD80B1002003460146009092
:1035E0002A462046FFF7A0FD38B94FF40272AFF229
:1035F000D401AFF2C00000F05BFE616A01B020466A
:10360000BDE8F04008470000880000206948406895
:10361000401C04D0F42268A172A000F049FE5020A2
:1036200080F31188BFF34F8FBFF36F8FFEE710B5A4
:10363000031F4FF080741C601B1F21F001011960F3
:10364000191F6C4B0B60143940380A6010BD6A4872
:103650004FF47A710068B0FBF1F14FF0E020491EA1
:1036600041610721016170471CB5644908780190E8
:10367000FF20087008788DF800009DF800004D4A82
:1036800000F0500010700720906007E09068401E26
:1036900090609DF8000040008DF800009DF800004B
:1036A0000006F3D4107A000200F4E0609060019804
:1036B00008705348016841F470010160016841F0ED
:1036C00070410160FFF7C3FF00205060FCF74CFD24
:1036D00000201CBD37484068B0F57A7F05D04FF414
:1036E000B57235A13FA000F0E3BD7047502080F3D4
:1036F0001188BFF34F8FBFF36F8F2E494868401C6E
:10370000486001280BD13E481C38006810F0FF0FBC
:1037100005D04FF4BD7228A132A000F0C9BD70479A
:1037200010B5244C606828B940F2811222A12DA066
:1037300000F0BEFD6068401E606001D180F311881A
:1037400010BD10B5502080F31188BFF34F8FBFF329
:103750006F8FFEF701FC20B129494FF080501C39D2
:103760000860002080F3118810BD10B5FCF732FD11
:10377000104C10280CD300F1E02090F8F0032178D1
:10378000884205D24FF42A720BA116A000F090FDDA
:103790001B4814380068A16800F4E060884207D92B
:1037A000BDE810404FF42E7203A10EA000F080BDC2
:1037B00010BD00009C0000202E2E5C4672656552F4
:1037C000544F535C706F727461626C655C52564406
:1037D000535C41524D5F434D335C706F72742E6386
:1037E000000000004572726F723A25732C25640D3B
:1037F0000A0000000D3600081000002000E400E080
:1038000020ED00E030B5744900E011460A688242BC
:10381000FBD34B685C18844203D14068184448606D
:10382000084643681C18944209D16B4C103C24682C
:10383000A24209D052681A4442600A6812680260C3
:10384000814200D0086030BD0460F9E72DE9F04105
:1038500005460026FEF76BFC5F4F103F386808B93D
:1038600000F098F8F86805424ED1002D4CD008358C
:1038700068070BD005F00700C0F108000544680791
:1038800004D0BF2255A15FA000F012FD002D3BD057
:103890007868854238D850490846046801E02146D6
:1038A00004466068A84202D220680028F7D1386830
:1038B000B846844228D00E682068086060680836E0
:1038C000401B10280ED96719780704D0EC2243A1B9
:1038D0004CA000F0EDFC6068401B786038466560E5
:1038E000FFF790FF6168D8F804004246401AC8F814
:1038F0000400D8F80830984200D29060D8F80C0044
:1039000001430020C4E90001FEF783FB700705D0E6
:103910004FF4967231A13BA000F0CAFC3046BDE8DE
:10392000F08170B500282BD02B4DA0F10804103D7C
:103930006068E968084205D14FF4A07227A131A060
:1039400000F0B6FC206828B140F2411223A12DA05E
:1039500000F0AEFC6068E968084211D02268002AD5
:103960000ED188436060FEF7E2FB60686968084436
:1039700068602046FFF746FFBDE87040FEF749BB90
:1039800070BD15481038406870471348103880687B
:10399000704770471F484FF4A041420706D0C01D32
:1039A0001C4920F00700411AC1F5A0410A4A002332
:1039B0000144C2E900030839103A21F007011160FF
:1039C0004B600B600B1AC0E9001393604FF000408E
:1039D0005360D06070470000B80000202E2E5C4677
:1039E00072656552544F535C706F727461626C659E
:1039F0005C4D656D4D616E675C686561705F342E0E
:103A0000630000004572726F723A25732C25640DB5
:103A10000A00000030050020002801D00168C160C4
:103A200070470146C0688068C860704738B1C16897
:103A300029B189684068814201D001207047002087
:103A40007047826802EBD273B1EB630F06DC00684B
:103A5000002902DB8068491EFCD570474068511A76
:103A600000E04068491EFCD5704770B5040004D0E2
:103A7000002902DBA068884201DC002070BD2046DE
:103A8000FFF7DFFFD0E9012105689160D0E901125D
:103A90005160A168491EA16000F020FD284670BD5C
:103AA00010B504460C2000F041FD00218160C0E902
:103AB000004110BD10B504460846FFF7F1FF6168EC
:103AC00049684160616881606168496888606168CF
:103AD0004860A068401CA06010BD10B504460846B0
:103AE000FFF7DEFF216889688160216841602168F5
:103AF0008968486021688860A068401CA06010BD8B
:103B000070B50D46040004D0002D02DBA068A84269
:103B100001DA002070BD35B1A84209D11146204616
:103B2000FFF7C8FF15E011462046FFF7D6FF10E06B
:103B30001046FFF7B5FF064629462046FFF781FFEE
:103B40004168C6E9011041688E604660A068401C6B
:103B5000A060012070BD70B5040010D0A06870B1E5
:103B60006168486842684A604268616891600568B7
:103B700000F0B4FCA068401EA060284670BD002084
:103B800070BD70B5040010D0A06870B1216888685D
:103B900082688A60826821685160056800F09EFC36
:103BA000A068401EA060284670BD002070BD10B502
:103BB0008A6804469AB1486888B183688B420ED1FE
:103BC00053688B420BD15060D1E9010282600846F4
:103BD00000F084FCA068401EA060012010BD002001
:103BE00010BD00688168002000E0401C8968002941
:103BF000FBD1704700B5FFF7F4FF801C00BD0068E3
:103C000002688A4207D08068826802E003688B42BB
:103C100002D0002AFAD10020704710B5044600688F
:103C20000068884201D1002010BD2046FFF7E7FF61
:103C30000028F9D0D0E901128A60D0E90112516060
:103C400000F04CFCA068401EA060012010BD70B5C3
:103C500005464C2000F06AFC04460C2000F066FC8F
:103C600020600C2000F062FC60602068002105608C
:103C7000606805602068416060688160D4E9000286
:103C80008260D4E900025060AFF27100A160E0628E
:103C9000AFF2B910E061AFF2B5006062AFF2A1001F
:103CA0002063AFF2EF102062AFF2B700A062AFF274
:103CB0000110A064AFF235106063AFF26510A0632D
:103CC000AFF2C310E063AFF25D202064AFF28D204D
:103CD00060642068E060AFF2AB202061AFF2BD20ED
:103CE0006061AFF2CB20A061204670BD10B50446E4
:103CF000206820B18168216000F0F0FBF8E72046E1
:103D0000BDE8104000F0EABB2DE9F041224F8046AB
:103D10007868816821B1D0E905610569884714E0B8
:103D20000020BDE8F0817868B04704680146227A37
:103D300042450AD17868826C9047206800F0CEFB3B
:103D4000204600F0CBFB0120EBE77868A84700286D
:103D5000E9D1E6E770B5104D04466868816810291E
:103D600001DB416B884768682146026ABDE8704004
:103D7000104710B509A0FFF76AFF074C60600C20E0
:103D800000F0D4FB206061680160AFF23701416050
:103D9000AFF28B01816010BDC0000020656363003D
:103DA00010B500227A4C05E010F8013B5340491E43
:103DB000E25CC9B20029F7D10AB1002010BD012090
:103DC00010BD10B5724C05E010F8013B5340491E80
:103DD000E25CC9B20029F7D1104610BD10B5024609
:103DE00000206B4C05E012F8013B4340491EE05CAB
:103DF000C9B20029F7D110BD7FB504460D46142085
:103E000000F094FBC0E90045BDF80810A0F80910C7
:103E10009DF80A10C172BDF80C1081819DF80E103A
:103E200081731021817404B070BD13B5142000F0AB
:103E30007DFBBDF80010A0F809109DF80210C172BA
:103E4000BDF8041081819DF80610817310218174E2
:103E50001CBD2DE9F04105468C461346002705E0C0
:103E60000878012805D05B1EDBB2491C002BF7D176
:103E700039460C004FF0FF3647D0A4EB0C00101A67
:103E8000C1B2601804E00278042A05D0491EC9B204
:103E9000401E0029F7D13846B0B310F8011C071BAB
:103EA0002972B81EC1B2A01CFFF77AFF60B3607818
:103EB000401EA874A0786872E078A8722079E87231
:103EC00060792873A0796873E079093FA87317F0C7
:103ED000FF062E711BD0304600F028FB324604F15D
:103EE0000801286000F088F92A48297B027891426D
:103EF0000FD1697B427891420BD1A97B80788142B6
:103F000007D10120BDE8F081FFE73046FAE7002045
:103F1000F8E70220F6E710B5044600220121093037
:103F2000FFF74FFF0246012104F10A00FFF749FFA6
:103F30000246012104F10B00FFF743FF0246012175
:103F400004F10C00FFF73DFF0246012104F10D00D2
:103F5000FFF737FF0246012104F10E00FFF731FFA2
:103F6000024621792068BDE810402AE7002801D0E8
:103F700000F0B4BA704710B5040007D02068FFF70E
:103F8000F5FF2046BDE8104000F0A8BA10BD0000C3
:103F900098450008240000204D484068416B0847C0
:103FA00010B54CA0FFF753FE494C60600C2000F0A8
:103FB000BDFA00212060017061684160AFF2270105
:103FC000816010BD2DE9F843DFF8109199F80000E9
:103FD000002831D04FF480742146414800F025F983
:103FE000404F41493E483A8800F006F921463E4894
:103FF00000F01BF9142000F099FA04463A78384989
:10400000FFF727FF4FF0000605003E800FD0681C29
:104010000DD02F4F78688168102901DB416B8847EC
:10402000DFF8C880012D09D0022D2BD04CE02046AE
:1040300000F054FA2E480670BDE8F8832079022873
:104040000ED8216808442B4910F8010C09688968CA
:104050008847206800F042FA204600F03FFA33E03B
:1040600078682146026A9047217AB4F80900ADF8D1
:104070000000E07A8DF80200D8F80000826800980D
:10408000904721E0A07CD0B9206800F027FA0220F8
:1040900000F04CFA022120602171FF21017021689B
:1040A000207A4870B4F80900A081E07AA073124821
:1040B0000188A4F809108078E0721020A074D8F864
:1040C000000041682046884789F80060B4E7000096
:1040D000C800002072656376000000002C000020FC
:1040E0003055002030000020E4000020D4000020E3
:1040F0002A000020C00000202400002070B5384DA8
:10410000044628688168102901DB416B88472868CC
:104110002146026ABDE8704010472DE9F34131485D
:104120000F4606888578142000F000FA0446012026
:1041300000F0FCF92060077001202071BDF800003C
:10414000A0819DF80200A0732748A4F80F60657451
:104150000188A4F809108078E0722046FFF7DBFEA2
:1041600020721020A0742046BDE8FC41C6E710B5BF
:104170001EA0FFF76CFD1A4C20600C2000F0D6F951
:104180006060002807D021680160AFF28F014160B4
:10419000AFF27901816010BD114810B500688168E7
:1041A00000291CD0416B88470446FCF7C2F900285F
:1041B00015D02179022906D90E48006841682046A9
:1041C000BDE810400847012901D0022907D1206825
:1041D00000F084F92046BDE8104000F07FB910BD22
:1041E000D0000020270000202400002073656E64AA
:1041F00000000000C000002040EA01039B0703D03C
:1042000009E008C9121F08C0042AFAD203E011F815
:10421000013B00F8013B521EF9D27047D2B201E0D7
:1042200000F8012B491EFBD270470022F6E710B5BB
:1042300013460A4604461946FFF7F0FF204610BD14
:10424000421C10F8011B0029FBD1801A704703465D
:1042500011F8012B00F8012B002AF9D118467047FC
:1042600030B50B46014600202022012409E021FA46
:1042700002F59D4205D303FA02F5491B04FA02F543
:104280002844151EA2F10102F1DC30BD064C074D99
:1042900006E0E06840F0010394E807009847103416
:1042A000AC42F6D3FBF748FF98460008B846000832
:1042B0000FB4054B10B503A9044A029800F02CF87E
:1042C00010BC5DF814FB0000F5060008D8000020C3
:1042D0000FB4084B10B504A902AA039800F01CF80B
:1042E000044602A9002000F0F3F8204610BC5DF857
:1042F00014FB0000D144000802E008C8121F08C1E6
:10430000002AFAD170477047002001E001C1121F56
:10431000002AFBD1704700002DE9FF4F8BB09A4671
:104320000F460546002606E025280BD052460D997B
:1043300090476D1C761C28780028F5D10FB03046C8
:10434000BDE8F08F0024A0460122604900E004434C
:1043500015F8013F203B02FA03F00842F7D1287814
:104360002E2817D115F8010F44F004042A280ED086
:104370006FF02F022878A0F1300109290AD808EB44
:10438000880102EB410100EB01086D1CF2E757F8D0
:10439000048B6D1C287869283ED006DC0028CDD01F
:1043A00063280BD0642804D136E0732810D0752818
:1043B0004BD052460D999047761C85E017F8040BB8
:1043C0008DF8000000208DF80100E946012003E08F
:1043D00057F8049B4FF0FF3061074FF0000401D401
:1043E0000AE0641C44450DDA8442FADB19F8041033
:1043F0000029F6D106E0641C8442FCDB19F80410A5
:104400000029F8D1264404E019F8010B52460D9911
:104410009047641EF8D257E001CF4FF00A0B0028F6
:1044200002DA40422D2102E0210504D52B218DF82E
:104430002410012103E0E10705D02021F7E70DF169
:10444000200908910CE00021F9E701CF4FF00A0B99
:10445000F9E75946FFF704FF01F1300209F8012D91
:104460000028F6D1ADEB090000F1200B600701D464
:104470004FF00108D84502DDA8EB0B0000E000205A
:104480008046002406E009A85246005D0D99904739
:10449000641C761C08988442F5DB04E03020524608
:1044A0000D999047761CB8F10001A8F10108F5DCE0
:1044B00005E019F8010B52460D999047761CBBF1A7
:1044C0000001ABF1010BF4DC6D1C34E7092801009D
:1044D0000A68531C0B6010707047000010B500286C
:1044E00021D0114B0022001F196803E0814203D83C
:1044F0000A4649680029F9D152B11368841A9C42CE
:1045000004D1006818441060104602E0506000E0DA
:10451000186039B102680B1A934203D10B681A4430
:1045200002604968416010BDDC000020F0B50B302E
:10453000154D20F007010024144A0FE003688B4258
:104540000BD38B4205D95E1A43184768C3E900674D
:1045500000E04368136002C004E0021D10680028F8
:10456000ECD12046002802D1286808B10020F0BD17
:10457000064A07481060074A121A22F00702C0E9EB
:10458000002401202860D7E7E0000020DC000020A4
:104590003456002030580020005EBCE2613FDD83CD
:1045A000C29C7E20A3FD1F419DC3217FFCA2401E13
:1045B0005F01E3BD3E6082DC237D9FC1421CFEA003
:1045C000E1BF5D0380DE3C62BEE0025CDF81633DF3
:1045D0007C22C09E1D43A1FF4618FAA427799BC5E3
:1045E00084DA3866E5BB5907DB856739BAE40658D3
:1045F0001947A5FB7826C49A653BD987045AB8E6C3
:10460000A7F91B45C6987A24F8A6441A99C7257BB2
:104610003A6486D85B05E7B98CD2306EEDB3510FA2
:104620004E10F2AC2F7193CD114FADF3702ECC9292
:10463000D38D6F31B2EC0E50AFF1134DCE90722C82
:104640006D33D18F0C52B0EE326C8ED0530DEFB172
:10465000F0AE4C1291CF2D73CA947628ABF5174962
:104660000856B4EA6937D58B5709EBB536688AD452
:1046700095CB2977F4AA4816E9B7550B88D6346A42
:104680002B7597C94A14F6A8742AC896154BA9F732
:10469000B6E80A54D7896B35B846000800000020F8
:1046A000E4000000F84200089C470008E4000020F5
:1046B0004C5B000008430008000000000000000000
:1046C000000000000000000000A24A0400000000FA
:1046D00000000000010203040607080900000000B2
:1046E00000000000000000000000000000000204C4
:1046F000060800000000010203040102030406078B
:104700000809000000000000000000000000000098
:104710000000000000000000000000000000000099
:104720000000000000000000000000000000000089
:104730000000000000000000000000000000000079
:104740000000000000000000000000000000000069
:104750000000000000000000AAAAAAAA00000000B1
:104760000000000000000000000000000000000049
:104770000000000000000000000000000000000039
:104780000000000000000000000000000000000029
:0C4790000000000000000000000000001D
:0400000508000131BD
:00000001FF
